:100000000C942A000C94310D0C94640D0C94970DF3
:100010000C9447000C9447000C9409090C94470079
:100020000C9447000C9447000C9447000C94470034
:100030000C9447000C9447000C9447000C94470024
:100040000C9447000C9447000C9447000C94470014
:100050000C94470011241FBECFE5D8E0DEBFCDBF12
:1000600011E0A0E6B0E0EEE8FBE502C005900D92DD
:10007000A83CB107D9F711E0A8ECB1E001C01D928E
:10008000A83DB107E1F70E9496200C94C52D0C9471
:100090000000EF92FF920F931F937B018C0120E0F1
:1000A00030E040E05FE40E94F50388238CF0C80153
:1000B000B70120E030E040E05FE40E94C1010E940F
:1000C00055049B01AC01205030404040504806C0D0
:1000D000C801B7010E9455049B01AC01B901CA01D6
:1000E0001F910F91FF90EF900895A0E0B0E0EBE733
:1000F000F0E00C945D2DDC012B01FA019C91923013
:1001000008F439C1EB018881823008F433C194309E
:1001100069F4843009F02FC111969C91119789815F
:10012000981709F428C1A9EBB0E025C1843009F47F
:1001300021C18230A9F4923009F01DC19A01AD01AC
:1001400088E0EA010990AE01E90109929E0181501F
:10015000C1F7E201898111969C918923818308C1AD
:10016000923009F407C112962D903C901397EB0141
:100170008A819B811496AD90BD90CD90DC901797AD
:10018000EC80FD800E811F819101281B390BB90184
:1001900037FF04C066277727621B730B6032710537
:1001A0000CF061C0121613066CF537014801062EDB
:1001B00004C096948794779467940A94D2F721E0C8
:1001C00030E040E050E004C0220F331F441F551FB1
:1001D0006A95D2F721503040404050402E213F21B7
:1001E00040235123211531054105510521F021E01E
:1001F00030E040E050E079018A01E628F72808293C
:1002000019293CC0232BD1F1260E371E350146019A
:10021000062E04C096948794779467940A94D2F734
:1002200021E030E040E050E004C0220F331F441FC3
:10023000551F6A95D2F721503040404050402A2146
:100240003B214C215D21211531054105510521F04E
:1002500021E030E040E050E059016A01A628B728CB
:10026000C828D9280BC0821593052CF01C01AA249C
:10027000BB24650103C0EE24FF24870111969C91E5
:10028000D20111968C91981709F445C0992339F041
:10029000A80197012A193B094C095D0906C0A6016E
:1002A00095012E193F09400B510B57FD08C01182D3
:1002B0003382228224833583468357831DC081E0A5
:1002C00081833382228288279927DC01821B930B4A
:1002D000A40BB50B84839583A683B7830DC0220F2F
:1002E000331F441F551F24833583468357838281E0
:1002F000938101979383828324813581468157813D
:10030000DA01C9010197A109B1098F5F9F4FAF4F72
:10031000BF4328F30BC0918333822282EA0CFB1C7B
:100320000C1D1D1DE482F5820683178383E0808304
:10033000248135814681578157FF1AC0C901AA27F8
:1003400097FDA095BA2F81709070A070B0705695EF
:10035000479537952795822B932BA42BB52B848318
:100360009583A683B7838281938101969383828349
:10037000DF0101C0D201CD01CDB7DEB7E2E10C94BF
:10038000792DA0E2B0E0E7ECF1E00C94692D6983EF
:100390007A838B839C832D833E834F835887E9E048
:1003A000EE2EF12CEC0EFD1ECE010196B7010E943F
:1003B00046068E010F5E1F4FCE010596B8010E94C2
:1003C00046068A8991E089278A8BC701B801AE0168
:1003D000475E5F4F0E9475000E947105A096E6E09F
:1003E0000C94852DA0E2B0E0E8EFF1E00C94692DCB
:1003F00069837A838B839C832D833E834F835887C5
:10040000F9E0EF2EF12CEC0EFD1ECE010196B701A6
:100410000E9446068E010F5E1F4FCE010596B80161
:100420000E944606C701B801AE01475E5F4F0E94B9
:1004300075000E947105A096E6E00C94852DA0E25F
:10044000B0E0E5E2F2E00C945D2D69837A838B8362
:100450009C832D833E834F835887CE010196BE0136
:10046000675F7F4F0E944606CE010596BE016F5E14
:100470007F4F0E9446069985923088F089898230A4
:10048000C8F0943019F4823051F404C0843029F457
:10049000923081F489EB90E0C6C0923049F420E0BC
:1004A0009A858A89981321E02A87CE010996BBC0D4
:1004B000823049F420E09A858A89981321E02A8BBA
:1004C000CE014196B0C02D843E844F8458886D88FB
:1004D0007E888F88988CEE24FF248701AA24BB2471
:1004E000650140E050E060E070E0E0E0F0E0C10174
:1004F00081709070892BE9F0E60CF71C081D191D1E
:100500009A01AB012A0D3B1D4C1D5D1D80E090E062
:10051000A0E0B0E0E614F7040805190520F481E036
:1005200090E0A0E0B0E0BA01A901480F591F6A1F8E
:100530007B1FAA0CBB1CCC1CDD1C97FE08C081E0F5
:1005400090E0A0E0B0E0A82AB92ACA2ADB2A3196B6
:10055000E032F10549F0660C771C881C991C569412
:10056000479437942794C3CFFA85EA892B893C892D
:100570008B859C85280F391F2E5F3F4F17C0CA01FE
:1005800081709070892B61F016950795F794E79428
:1005900080E090E0A0E0B0E8E82AF92A0A2B1B2BC3
:1005A00076956795579547952F5F3F4F77FDE7CF36
:1005B0000CC0440F551F661F771F17FD4160EE0CDE
:1005C000FF1C001F111F21503040403090E05907A0
:1005D00090E0690790E4790760F32B8F3C8FDB0193
:1005E000CA018F779070A070B07080349105A1051A
:1005F000B10561F447FD0AC0E114F10401051105DC
:1006000029F0405C5F4F6F4F7F4F40781A8EFE1786
:1006100011F081E08A8F4D8F5E8F6F8F78A383E01A
:10062000898FCE0149960E947105A096E2E10C9453
:10063000792DA8E1B0E0EFE1F3E00C94652D69833A
:100640007A838B839C832D833E834F835887B9E0C5
:10065000EB2EF12CEC0EFD1ECE010196B7010E948F
:1006600046068E010F5E1F4FCE010596B8010E940F
:1006700046062985223008F47EC03989323010F4CC
:10068000B8017CC08A859A8989278A87243011F02D
:10069000223031F4231709F06EC069EB70E06EC0B0
:1006A000343039F41D861E861F86188A1C861B86E8
:1006B00004C0323021F484E08987B7015FC02B8504
:1006C0003C858B899C89281B390B3C872B87ED84C3
:1006D000FE840F851889AD88BE88CF88D88CEA142F
:1006E000FB040C051D0540F4EE0CFF1C001F111F40
:1006F000215030403C872B8720E030E040E050E044
:1007000080E090E0A0E0B0E460E070E0EA14FB0478
:100710000C051D0540F0282B392B4A2B5B2BEA18C2
:10072000FB080C091D09B695A79597958795EE0CC2
:10073000FF1C001F111F6F5F7F4F6F31710531F775
:10074000DA01C9018F779070A070B0708034910584
:10075000A105B10561F427FD0AC0E114F10401050A
:10076000110529F0205C3F4F4F4F5F4F20782D87B8
:100770003E874F87588BBE01675F7F4FCB010E943A
:1007800071056896EAE00C94812DA8E1B0E0EBECED
:10079000F3E00C94692D69837A838B839C832D838A
:1007A0003E834F83588789E0E82EF12CEC0EFD1E26
:1007B000CE010196B7010E9446068E010F5E1F4FC3
:1007C000CE010596B8010E9446068985823040F028
:1007D0008989823028F0C701B8010E94BE0601C095
:1007E0008FEF6896E6E00C94852DA8E1B0E0EBEF82
:1007F000F3E00C94692D69837A838B839C832D832A
:100800003E834F83588789E0E82EF12CEC0EFD1EC5
:10081000CE010196B7010E9446068E010F5E1F4F62
:10082000CE010596B8010E9446068985823040F0C7
:100830008989823028F0C701B8010E94BE0601C034
:100840008FEF6896E6E00C94852DA8E1B0E0EBE22E
:10085000F4E00C94692D69837A838B839C832D83C8
:100860003E834F83588789E0E82EF12CEC0EFD1E65
:10087000CE010196B7010E9446068E010F5E1F4F02
:10088000CE010596B8010E9446068985823040F067
:100890008989823028F0C701B8010E94BE0601C0D4
:1008A00081E06896E6E00C94852DACE0B0E0EBE5E5
:1008B000F4E00C946D2D69837A838B839C83CE0145
:1008C0000196BE016B5F7F4F0E9446068D8182308C
:1008D00061F1823050F1843021F48E81882351F10E
:1008E0002EC02F81388537FD20C06E812F31310514
:1008F0001CF06623F9F023C08EE190E0821B930B7D
:1009000029853A854B855C8504C056954795379572
:1009100027958A95D2F76623B1F05095409530958A
:1009200021953F4F4F4F5F4F0EC020E030E040E039
:1009300050E009C02FEF3FEF4FEF5FE704C020E02A
:1009400030E040E050E8B901CA012C96E2E00C9496
:10095000892DA8E0B0E0EFEAF4E00C94652D7B016E
:100960008C01611571058105910519F482E0898377
:1009700060C083E089838EE1C82ED12CDC82CB82DB
:10098000ED82FE820F831887C801B7010E942205FD
:10099000FC013197F7FF3BC0222733272E1B3F0B6B
:1009A00057016801022E04C0D694C794B794A79447
:1009B0000A94D2F740E050E060E070E081E090E01F
:1009C000A0E0B0E004C0880F991FAA1FBB1F2A95A2
:1009D000D2F70197A109B1098E219F21A023B1234C
:1009E0000097A105B10521F041E050E060E070E022
:1009F0004A295B296C297D294D835E836F83788723
:100A00008EE190E08E1B9F0B9C838B8312C03097EE
:100A100081F00E2E04C0EE0CFF1C001F111F0A9463
:100A2000D2F7ED82FE820F831887CE1ADF0ADC82AE
:100A3000CB821A82CE0101960E9471052896EAE0C7
:100A40000C94812DEF92FF920F931F937B018C01E9
:100A500080E0E81680E0F80681E0080780E01807EB
:100A600088F48FEFE816F1040105110531F028F044
:100A700088E090E0A0E0B0E017C080E090E0A0E067
:100A8000B0E012C080E0E81680E0F80680E00807D9
:100A900081E0180728F088E190E0A0E0B0E004C011
:100AA00080E190E0A0E0B0E020E230E040E050E003
:100AB000281B390B4A0B5B0B04C016950795F7945E
:100AC000E7948A95D2F7F701EF53FF4F8081281BF7
:100AD000310941095109C9011F910F91FF90EF9010
:100AE0000895DF92EF92FF920F931F93FC01E48031
:100AF000F58006811781D1808081823048F480E0C2
:100B000090E0A0E1B0E0E82AF92A0A2B1B2BA5C04F
:100B1000843009F49FC0823021F4EE24FF24870141
:100B200005C0E114F1040105110519F4E0E0F0E05D
:100B300096C0628173819FEF623879070CF05BC0C9
:100B400022E83FEF261B370B2A3131052CF020E03D
:100B500030E040E050E02AC0B801A701022E04C0F6
:100B600076956795579547950A94D2F781E090E07E
:100B7000A0E0B0E004C0880F991FAA1FBB1F2A95F0
:100B8000D2F70197A109B1098E219F21A023B1239A
:100B90000097A105B10521F081E090E0A0E0B0E070
:100BA0009A01AB01282B392B4A2B5B2BDA01C901A7
:100BB0008F779070A070B07080349105A105B10559
:100BC00039F427FF09C0205C3F4F4F4F5F4F04C0EF
:100BD000215C3F4F4F4F5F4FE0E0F0E02030A0E05E
:100BE0003A07A0E04A07A0E45A0710F0E1E0F0E07D
:100BF00079018A0127C06038710564F5FB01E1586D
:100C0000FF4FD801C7018F779070A070B07080340B
:100C10009105A105B10539F4E7FE0DC080E490E02F
:100C2000A0E0B0E004C08FE390E0A0E0B0E0E80E08
:100C3000F91E0A1F1B1F17FF05C016950795F7948D
:100C4000E794319687E016950795F794E7948A958F
:100C5000D1F705C0EE24FF248701EFEFF0E06E2FFF
:100C6000679566276795902F9F77D794DD24D79453
:100C70008E2F8695492F462B582F5D29B701CA0123
:100C80001F910F91FF90EF90DF900895FC01DB0121
:100C9000408151812281622F6F7770E0221F2227CD
:100CA000221F9381892F880F822B282F30E0991FD4
:100CB0009927991F11969C93119721153105A9F534
:100CC000411551056105710511F482E037C082E8D4
:100CD0009FEF13969C938E9312979A01AB0167E056
:100CE000220F331F441F551F6A95D1F783E08C9361
:100CF0000DC0220F331F441F551F12968D919C91DA
:100D00001397019713969C938E931297203080E04F
:100D1000380780E0480780E4580758F314962D936D
:100D20003D934D935C93179708952F3F310579F4C8
:100D3000411551056105710519F484E08C930895FE
:100D400064FF03C081E08C9312C01C9210C02F5727
:100D5000304013963C932E93129783E08C9387E058
:100D6000440F551F661F771F8A95D1F7706414963C
:100D70004D935D936D937C93179708951F93DC01BA
:100D8000FB019C91923008F447C08081823008F4C6
:100D900043C0943051F411961C91843099F58181AF
:100DA000682F70E0611B71093FC0843021F09230E0
:100DB00031F48230B9F18181882389F12DC01196F7
:100DC0001C9111978230F1F081811817D9F4129695
:100DD0002D913C911397828193818217930794F010
:100DE00028173907BCF014968D919D910D90BC91F8
:100DF000A02D2481358146815781281739074A075C
:100E00005B0718F4112341F00AC082179307A40767
:100E1000B50740F4112319F061E070E005C06FEFF1
:100E20007FEF02C060E070E0CB011F910895DF9377
:100E3000CF9300D000D0CDB7DEB79C838B831A82CE
:100E40001982EBE2F0E082E08083EAE2F0E088E100
:100E50008083A0E4B0E0EB81FC818681882F90E064
:100E6000880F991F282F2068EB81FC818481882FAF
:100E700090E082959295907F9827807F9827282BE5
:100E8000EB81FC818581882F90E0880F991F880F66
:100E9000991F880F991F822B8C93EB81FC81808195
:100EA0009181A281B381880F991FAA1FBB1F880F50
:100EB000991FAA1FBB1F880F991FAA1FBB1F9C0148
:100EC000AD0180E094E2A4EFB0E0BC01CD010E944E
:100ED000272DDA01C90101979A838983E0E4F0E0C4
:100EE00089819A81892F99278083E9E2F0E08981BD
:100EF00080830F900F900F900F90CF91DF91089506
:100F0000DF93CF930F92CDB7DEB78983EBE2F0E0AA
:100F10008081882F90E0807290700097B9F3ECE2A6
:100F2000F0E0898180830F90CF91DF910895DF9366
:100F3000CF93CDB7DEB7EBE2F0E080818823DCF71A
:100F4000ECE2F0E08081CF91DF910895DF93CF93C1
:100F500000D00F92CDB7DEB79B838A8319820EC073
:100F60008981282F30E08A819B81FC01E20FF31FE9
:100F700080810E94800789818F5F89838981282FE2
:100F800030E08A819B81FC01E20FF31F808188237E
:100F900039F70F900F900F90CF91DF9108950F9335
:100FA0001F93DF93CF9300D00F92CDB7DEB79B8313
:100FB0008A8319828981282F30E08A819B818C0164
:100FC000020F131F0E949707F80180830FC08981C9
:100FD0008F5F89838981282F30E08A819B818C01F2
:100FE000020F131F0E949707F80180838981282F21
:100FF00030E08A819B81FC01E20FF31F8081833204
:1010000031F78981282F30E08A819B81FC01E20F32
:10101000F31F10820F900F900F90CF91DF911F91CF
:101020000F910895DF93CF9300D000D0CDB7DEB7F6
:101030009B838A836C8319820EC08981282F30E0BC
:101040008A819B81FC01E20FF31F80810E9480074F
:1010500089818F5F898399818C81981770F383E2EE
:101060000E9480070F900F900F900F90CF91DF910B
:1010700008950F931F93DF93CF9300D00F92CDB7B6
:10108000DEB79B838A8319828981282F30E08A8189
:101090009B818C01020F131F0E949707F801808328
:1010A0000FC089818F5F89838981282F30E08A81F1
:1010B0009B818C01020F131F0E949707F801808308
:1010C0008981282F30E08A819B81FC01E20FF31F88
:1010D0008081833231F70F900F900F90CF91DF9185
:1010E0001F910F9108950F931F93DF93CF9300D01B
:1010F000CDB7DEB79A838983E2E5F0E010820CE594
:1011000010E0E981FA818281482F50E0CA019C01F8
:10111000220F331FC9019695982F88279795879599
:10112000821B930B840F951F24E630E0B9010E94C7
:10113000142DCB01F8018083A7E3B0E0E7E3F0E0F2
:10114000808188608C93A3E5B0E0E981FA81808199
:10115000882F90E082959295907F9827807F98279E
:10116000982F9864E981FA818181892B8C930F9063
:101170000F90CF91DF911F910F9108950F931F93BF
:10118000DF93CF9300D0CDB7DEB79A838983E4E4B1
:10119000F0E0108203E410E0E981FA818281482FB7
:1011A00050E0CA019C01220F331FC9019695982F68
:1011B000882797958795821B930B840F951F24E6AC
:1011C00030E0B9010E94142DCB01F8018083A1E326
:1011D000B0E0E1E3F0E0808180688C93A5E4B0E0CA
:1011E000E981FA818081882F90E082959295907FA5
:1011F0009827807F9827982F9864E981FA818181C8
:10120000892B8C930F900F90CF91DF911F910F91AD
:1012100008951F920F920FB60F9211242F933F93B0
:101220004F935F936F937F938F939F93AF93BF93EE
:10123000EF93FF93DF93CF93CDB7DEB78091C801D3
:101240009091C901009729F0E091C801F091C9017E
:101250000995CF91DF91FF91EF91BF91AF919F9150
:101260008F917F916F915F914F913F912F910F904F
:101270000FBE0F901F901895DF93CF9300D0CDB77E
:10128000DEB79A838983A1E3B0E0E1E3F0E08081F7
:101290008F7B8C93EFE4F0E08CE08083AEE4B0E0F1
:1012A000EEE4F0E08081982F987FE981FA818081D7
:1012B000892B8C93AEE4B0E0EEE4F0E08081282F3F
:1012C0002F7BE981FA818181882F90E00024969517
:1012D00087950794969587950794982F802D822B54
:1012E0008C93ECE4F0E011821082E6E4F0E01182ED
:1012F0001082A9E5B0E0E9E5F0E0808180628C939E
:10130000AFE5B0E0EFE5F0E0808180688C930F906E
:101310000F90CF91DF910895DF93CF9300D0CDB799
:10132000DEB79A83898389819A819093C9018093DA
:10133000C8010F900F90CF91DF910895DF93CF9365
:101340000F92CDB7DEB78983AEE4B0E0EEE4F0E013
:101350008081282F2F7B8981882F90E0002496950B
:1013600087950794969587950794982F802D822BC3
:101370008C930F90CF91DF910895DF93CF93CDB7EA
:10138000DEB7E6E4F0E080819181CF91DF910895AE
:10139000DF93CF93CDB7DEB7ECE4F0E0118210829B
:1013A000CF91DF910895DF93CF93CDB7DEB7EFE410
:1013B000F0E01082EEE4F0E01082ECE4F0E0118264
:1013C0001082E6E4F0E011821082A9E5B0E0E9E5E0
:1013D000F0E080818F7D8C931092C9011092C8013A
:1013E000CF91DF910895DF93CF9300D000D00F927B
:1013F000CDB7DEB789836A834B838A81883008F052
:10140000D5C08981843008F0D1C08981282F30E08F
:101410003D832C838C819D818130910509F443C0EB
:101420002C813D81223031052CF48C819D810097E7
:1014300071F0BCC02C813D812230310509F45FC0C0
:101440008C819D818330910509F485C0AFC08B816B
:101450008130A1F4AAE3B0E0EAE3F0E08081482F14
:101460008A81282F30E081E090E0022E02C0880FB0
:10147000991F0A94E2F7842B8C9398C0AAE3B0E0FA
:10148000EAE3F0E08081482F8A81282F30E081E074
:1014900090E0022E02C0880F991F0A94E2F780950F
:1014A00084238C9383C08B818130A1F4A7E3B0E0C7
:1014B000E7E3F0E08081482F8A81282F30E081E047
:1014C00090E0022E02C0880F991F0A94E2F7842B45
:1014D0008C936CC0A7E3B0E0E7E3F0E08081482F95
:1014E0008A81282F30E081E090E0022E02C0880F30
:1014F000991F0A94E2F7809584238C9357C08B81BF
:101500008130A1F4A4E3B0E0E4E3F0E08081482F6F
:101510008A81282F30E081E090E0022E02C0880FFF
:10152000991F0A94E2F7842B8C9340C0A4E3B0E0A7
:10153000E4E3F0E08081482F8A81282F30E081E0C9
:1015400090E0022E02C0880F991F0A94E2F780955E
:1015500084238C932BC08B818130A1F4A1E3B0E074
:10156000E1E3F0E08081482F8A81282F30E081E09C
:1015700090E0022E02C0880F991F0A94E2F7842B94
:101580008C9314C0A1E3B0E0E1E3F0E08081482F48
:101590008A81282F30E081E090E0022E02C0880F7F
:1015A000991F0A94E2F7809584238C930F900F90F3
:1015B0000F900F900F90CF91DF910895DF93CF930D
:1015C00000D000D00F92CDB7DEB789836A834B83FA
:1015D0008A81883008F0D5C08981843008F0D1C074
:1015E0008981282F30E03D832C838C819D8181303F
:1015F000910509F443C02C813D81223031052CF442
:101600008C819D81009771F0BCC02C813D8122307E
:10161000310509F45FC08C819D818330910509F407
:1016200085C0AFC08B818130A1F4ABE3B0E0EBE3C8
:10163000F0E08081482F8A81282F30E081E090E01F
:10164000022E02C0880F991F0A94E2F7842B8C9314
:1016500098C0ABE3B0E0EBE3F0E08081482F8A81F3
:10166000282F30E081E090E0022E02C0880F991F01
:101670000A94E2F7809584238C9383C08B81813018
:10168000A1F4A8E3B0E0E8E3F0E08081482F8A818C
:10169000282F30E081E090E0022E02C0880F991FD1
:1016A0000A94E2F7842B8C936CC0A8E3B0E0E8E3E3
:1016B000F0E08081482F8A81282F30E081E090E09F
:1016C000022E02C0880F991F0A94E2F780958423A6
:1016D0008C9357C08B818130A1F4A5E3B0E0E5E3A2
:1016E000F0E08081482F8A81282F30E081E090E06F
:1016F000022E02C0880F991F0A94E2F7842B8C9364
:1017000040C0A5E3B0E0E5E3F0E08081482F8A81A6
:10171000282F30E081E090E0022E02C0880F991F50
:101720000A94E2F7809584238C932BC08B818130BF
:10173000A1F4A2E3B0E0E2E3F0E08081482F8A81E7
:10174000282F30E081E090E0022E02C0880F991F20
:101750000A94E2F7842B8C9314C0A2E3B0E0E2E396
:10176000F0E08081482F8A81282F30E081E090E0EE
:10177000022E02C0880F991F0A94E2F780958423F5
:101780008C930F900F900F900F900F90CF91DF914F
:101790000895DF93CF9300D000D00F92CDB7DEB77E
:1017A0008A836B8319828B81883008F084C08A8198
:1017B000843008F080C08A81282F30E03D832C835C
:1017C0004C815D814130510579F18C819D81823060
:1017D000910534F42C813D812115310569F06BC0F0
:1017E0004C815D8142305105B9F18C819D818330FE
:1017F000910509F449C05FC0E9E3F0E08081282F3A
:1018000030E08B81882F90E0A90102C05595479563
:101810008A95E2F7CA0181709070882319F081E0FF
:10182000898349C0198247C0E6E3F0E08081282F10
:1018300030E08B81882F90E0A90102C05595479533
:101840008A95E2F7CA0181709070882319F081E0CF
:10185000898331C019822FC0E3E3F0E08081282F13
:1018600030E08B81882F90E0A90102C05595479503
:101870008A95E2F7CA0181709070882319F081E09F
:10188000898319C0198217C0E0E3F0E08081282F16
:1018900030E08B81882F90E0A90102C055954795D3
:1018A0008A95E2F7CA0181709070882319F081E06F
:1018B000898301C0198289810F900F900F900F903A
:1018C0000F90CF91DF910895DF93CF9300D000D098
:1018D000CDB7DEB789836A838981843090F58981A9
:1018E000282F30E03C832B838B819C8181309105B4
:1018F000D1F02B813C81223031052CF48B819C81ED
:10190000009761F01EC02B813C812230310581F0AF
:101910008B819C818330910581F013C0EAE3F0E074
:101920008A8180830EC0E7E3F0E08A81808309C06A
:10193000E4E3F0E08A81808304C0E1E3F0E08A819F
:1019400080830F900F900F900F90CF91DF910895AB
:10195000DF93CF9300D000D0CDB7DEB789836A8301
:101960008981843090F58981282F30E03C832B8356
:101970008B819C8181309105D1F02B813C8122307B
:1019800031052CF48B819C81009761F01EC02B8166
:101990003C812230310581F08B819C81833091051F
:1019A00081F013C0EBE3F0E08A8180830EC0E8E3AE
:1019B000F0E08A81808309C0E5E3F0E08A818083DA
:1019C00004C0E2E3F0E08A8180830F900F900F90D3
:1019D0000F90CF91DF910895DF93CF9300D000D087
:1019E000CDB7DEB78A8319828A81843090F58A81E7
:1019F000282F30E03C832B838B819C8181309105A3
:101A0000D1F02B813C81223031052CF48B819C81DB
:101A1000009761F01EC02B813C812230310581F09E
:101A20008B819C818330910581F013C0E9E3F0E064
:101A3000808189830EC0E6E3F0E08081898309C05C
:101A4000E3E3F0E08081898304C0E0E3F0E080819B
:101A5000898389810F900F900F900F90CF91DF9124
:101A600008951F920F920FB60F9211242F933F9358
:101A70004F935F936F937F938F939F93AF93BF9396
:101A8000EF93FF93DF93CF93CDB7DEB78091CA0179
:101A90009091CB01009729F0E091CA01F091CB0120
:101AA0000995CF91DF91FF91EF91BF91AF919F91F8
:101AB0008F917F916F915F914F913F912F910F90F7
:101AC0000FBE0F901F9018951F920F920FB60F9296
:101AD00011242F933F934F935F936F937F938F9333
:101AE0009F93AF93BF93EF93FF93DF93CF93CDB7C4
:101AF000DEB78091CC019091CD01009729F0E09163
:101B0000CC01F091CD010995CF91DF91FF91EF913B
:101B1000BF91AF919F918F917F916F915F914F9105
:101B20003F912F910F900FBE0F901F9018951F920D
:101B30000F920FB60F9211242F933F934F935F9301
:101B40006F937F938F939F93AF93BF93EF93FF9385
:101B5000DF93CF93CDB7DEB78091CE019091CF01C7
:101B6000009729F0E091CE01F091CF010995CF9136
:101B7000DF91FF91EF91BF91AF919F918F917F91F5
:101B80006F915F914F913F912F910F900FBE0F90EA
:101B90001F901895DF93CF9300D000D0CDB7DEB75C
:101BA0009A838983E981FA818081282F30E03C8300
:101BB0002B838B819C818130910531F12B813C817C
:101BC0002230310509F441C08B819C81009709F0D6
:101BD0005EC0A1E3B0E0E1E3F0E080818B7F8C9315
:101BE000A5E5B0E0E5E5F0E08081982F9C7FE981F4
:101BF000FA818181892B8C93ABE5B0E0EBE5F0E0D5
:101C0000808180648C9343C0A1E3B0E0E1E3F0E025
:101C10008081877F8C93A5E5B0E0E5E5F0E08081E9
:101C2000282F237FE981FA818181882F90E0880F16
:101C3000991F880F991F822B8C93ABE5B0E0EBE5E1
:101C4000F0E0808180688C9322C0A7E3B0E0E7E3F6
:101C5000F0E080818B7F8C93E981FA8181818130F2
:101C600041F4A4E5B0E0E4E5F0E0808180648C9389
:101C700007C0A4E5B0E0E4E5F0E080818F7B8C93C1
:101C8000ABE5B0E0EBE5F0E0808180628C930F90F3
:101C90000F900F900F90CF91DF910895DF93CF9326
:101CA00000D00F92CDB7DEB789838981282F30E02D
:101CB0003B832A838A819B8181309105C1F02A81EF
:101CC0003B812230310511F18A819B81009761F5BA
:101CD000A5E5B0E0E5E5F0E080818C7F8C93ABE595
:101CE000B0E0EBE5F0E080818F7B8C931DC0A5E533
:101CF000B0E0E5E5F0E08081837F8C93ABE5B0E078
:101D0000EBE5F0E080818F778C930EC0A4E5B0E026
:101D1000E4E5F0E080818F7B8C93ABE5B0E0EBE510
:101D2000F0E080818F7D8C930F900F900F90CF917A
:101D3000DF910895DF93CF9300D000D00F92CDB7FD
:101D4000DEB79A8389836B838B81282F30E03D83B4
:101D50002C838C819D818130910581F02C813D8186
:101D60002230310591F08C819D810097A1F4898109
:101D70009A819093CB018093CA010DC089819A8189
:101D80009093CD018093CC0106C089819A81909374
:101D9000CF018093CE010F900F900F900F900F9076
:101DA000CF91DF910895DF93CF9300D0CDB7DEB709
:101DB00082E0898381E08A83CE0101960E943C09FA
:101DC00089EF9FE00E948C0982E063E041E00E947D
:101DD000F3090F900F90CF91DF910895DF93CF9388
:101DE000CDB7DEB768970FB6F894DEBF0FBECDBF94
:101DF00082E063E041E00E94DE0A80E090E0A0E241
:101E0000B1E48D8B9E8BAF8BB88F6D897E898F8966
:101E1000988D2BEA3AEA4AEA50E40E941F02DC015C
:101E2000CB01898B9A8BAB8BBC8B69897A898B8927
:101E30009C8920E030E040E85FE30E94250488238D
:101E40001CF481E0888B91C069897A898B899C898F
:101E500020E030E04FE753E40E94C50318160CF071
:101E60007BC06D897E898F89988D20E030E04AE7BC
:101E700054E40E941903DC01CB018C879D87AE8757
:101E8000BF876C857D858E859F8520E030E04AE7A1
:101E900055E40E941F02DC01CB0188879987AA873D
:101EA000BB87688579858A859B8520E030E040E89E
:101EB0005FE30E94250488232CF481E090E09F8357
:101EC0008E833FC0688579858A859B8520E03FEFBA
:101ED0004FE757E40E94C50318164CF56C857D85C5
:101EE0008E859F8520E030E040E251E40E941F0291
:101EF000DC01CB01BC01CD010E944900DC01CB011A
:101F00009F838E830FC080E991E09D838C838C81B9
:101F10009D810197F1F79D838C838E819F8101972D
:101F20009F838E838E819F81009769F724C0688587
:101F300079858A859B850E944900DC01CB019F83BE
:101F40008E838E819F819B838A838A819B81019767
:101F5000F1F79B838A830FC069897A898B899C8971
:101F60000E944900DC01CB01888B888989838981A3
:101F70008A95F1F7898382E063E040E00E94DE0AFF
:101F800068960FB6F894DEBF0FBECDBFCF91DF913C
:101F90000895DF93CF93CDB7DEB70E94EE0E809108
:101FA000D1019091D201CC01A0E0B0E0BC01CD0103
:101FB0000E94A904DC01CB01BC01CD0123E333E382
:101FC0004BEE52E40E941903DC01CB01BC01CD01B0
:101FD00020E030E040E85FE30E94F201DC01CB0149
:101FE000BC01CD010E944900DC01CB01CF91DF9102
:101FF0000895DF93CF93CDB7DEB78091D0018F5F87
:102000008093D0018091D001813031F40E94C809C1
:1020100080E00E949E0911C08091D001823069F455
:102020000E94BD099093D2018093D10181E00E946A
:102030009E090E94C8091092D001CF91DF910895A6
:10204000DF93CF93CDB7DEB783E062E040E00E943C
:10205000F30983E063E040E00E94F309CF91DF9150
:102060000895DF93CF93CDB7DEB783E062E00E949F
:10207000C90BCF91DF910895DF93CF93CDB7DEB732
:1020800083E063E00E94C90BCF91DF910895DF9355
:10209000CF930F92CDB7DEB7898389818093D30127
:1020A0000F90CF91DF910895DF93CF930F92CDB72B
:1020B000DEB7898389810E94471082E064E041E0B5
:1020C0000E94F30982E065E041E00E94F30981E0AB
:1020D00063E041E00E94F30982E066E041E00E9493
:1020E000F30982E067E041E00E94F30983E067E0E2
:1020F00041E00E94F30982E064E040E00E94DE0AD1
:1021000082E065E040E00E94DE0A82E066E040E0B6
:102110000E94DE0A82E067E040E00E94DE0A0F9043
:10212000CF91DF910895DF93CF93CDB7DEB7279797
:102130000FB6F894DEBF0FBECDBF8C836D8382E0F7
:10214000898381E08A838D818B83CE0101960E94F1
:1021500073088C81282F30E03F832E838E819F81EE
:1021600081309105A1F02E813F8122303105D1F0DF
:102170008E819F81009701F582E064E040E00E943B
:10218000DE0A82E065E040E00E94DE0A15C082E0DF
:1021900064E041E00E94DE0A82E065E040E00E94E7
:1021A000DE0A0AC082E064E040E00E94DE0A82E0CB
:1021B00065E041E00E94DE0A27960FB6F894DEBF84
:1021C0000FBECDBFCF91DF910895DF93CF93CDB7F1
:1021D000DEB727970FB6F894DEBF0FBECDBF8C8356
:1021E0006D8382E0898381E08A838D818B83CE0138
:1021F00001960E94BE088C81282F30E03F832E83F9
:102200008E819F8181309105A1F02E813F81223006
:102210003105D1F08E819F81009701F582E066E063
:1022200040E00E94DE0A82E067E040E00E94DE0AB1
:1022300015C082E066E041E00E94DE0A82E067E0CD
:1022400040E00E94DE0A0AC082E066E040E00E94B0
:10225000DE0A82E067E041E00E94DE0A27960FB6C0
:10226000F894DEBF0FBECDBFCF91DF910895DF930D
:10227000CF93CDB7DEB760970FB6F894DEBF0FBE31
:10228000CDBF188A1F8681C09F8582E0692F0E947A
:1022900093109F8582E0692F0E94E51080E090E016
:1022A000A0E0B0E08B879C87AD87BE876B857C857F
:1022B0008D859E8520E030E04AE755E40E941F02AC
:1022C000DC01CB018F839887A987BA876F817885D6
:1022D00089859A8520E030E040E85FE30E9425048C
:1022E00088232CF481E090E09E838D833FC06F8132
:1022F000788589859A8520E03FEF4FE757E40E9473
:10230000C50318164CF56B857C858D859E8520E070
:1023100030E040E251E40E941F02DC01CB01BC012D
:10232000CD010E944900DC01CB019E838D830FC04B
:1023300080E991E09C838B838B819C810197F1F7ED
:102340009C838B838D819E8101979E838D838D815C
:102350009E81009769F714C06F81788589859A8579
:102360000E944900DC01CB019E838D838D819E817B
:102370009A83898389819A810197F1F79A83898366
:102380008F8598890A96988B8F878091D301282F03
:1023900030E08F859889281739070CF075CF609643
:1023A0000FB6F894DEBF0FBECDBFCF91DF91089579
:1023B000DF93CF93CDB7DEB760970FB6F894DEBF4B
:1023C0000FBECDBF188A1F8681C09F8581E0692F0F
:1023D0000E9493109F8581E0692F0E94E51080E0A4
:1023E00090E0A0E0B0E08B879C87AD87BE876B85CF
:1023F0007C858D859E8520E030E04AE755E40E948B
:102400001F02DC01CB018F839887A987BA876F8170
:10241000788589859A8520E030E040E85FE30E9476
:10242000250488232CF481E090E09E838D833FC0B7
:102430006F81788589859A8520E03FEF4FE757E4E3
:102440000E94C50318164CF56B857C858D859E858D
:1024500020E030E040E251E40E941F02DC01CB01A9
:10246000BC01CD010E944900DC01CB019E838D831C
:102470000FC080E991E09C838B838B819C810197C5
:10248000F1F79C838B838D819E8101979E838D8341
:102490008D819E81009769F714C06F817885898549
:1024A0009A850E944900DC01CB019E838D838D813A
:1024B0009E819A83898389819A810197F1F79A8312
:1024C00089838F8598890A96988B8F878091D3010D
:1024D000282F30E08F859889281739070CF075CFA1
:1024E00060960FB6F894DEBF0FBECDBFCF91DF91DF
:1024F0000895DF93CF93CDB7DEB780E060E00E9410
:10250000931080E060E00E94E510CF91DF91089584
:10251000DF93CF93CDB7DEB760970FB6F894DEBFE9
:102520000FBECDBF188A1F8680C080E060E00E9489
:1025300093109F8582E0692F0E94E51080E090E073
:10254000A0E0B0E08B879C87AD87BE876B857C85DC
:102550008D859E8520E030E04AE755E40E941F0209
:10256000DC01CB018F839887A987BA876F81788533
:1025700089859A8520E030E040E85FE30E942504E9
:1025800088232CF481E090E09E838D833FC06F818F
:10259000788589859A8520E03FEF4FE757E40E94D0
:1025A000C50318164CF56B857C858D859E8520E0CE
:1025B00030E040E251E40E941F02DC01CB01BC018B
:1025C000CD010E944900DC01CB019E838D830FC0A9
:1025D00080E991E09C838B838B819C810197F1F74B
:1025E0009C838B838D819E8101979E838D838D81BA
:1025F0009E81009769F714C06F81788589859A85D7
:102600000E944900DC01CB019E838D838D819E81D8
:102610009A83898389819A810197F1F79A838983C3
:102620008F8598890A96988B8F878091D301282F60
:1026300030E08F859889281739070CF076CF60969F
:102640000FB6F894DEBF0FBECDBFCF91DF910895D6
:10265000DF93CF93CDB7DEB760970FB6F894DEBFA8
:102660000FBECDBF188A1F8680C09F8582E0692F6C
:102670000E94931080E060E00E94E51080E090E00E
:10268000A0E0B0E08B879C87AD87BE876B857C859B
:102690008D859E8520E030E04AE755E40E941F02C8
:1026A000DC01CB018F839887A987BA876F817885F2
:1026B00089859A8520E030E040E85FE30E942504A8
:1026C00088232CF481E090E09E838D833FC06F814E
:1026D000788589859A8520E03FEF4FE757E40E948F
:1026E000C50318164CF56B857C858D859E8520E08D
:1026F00030E040E251E40E941F02DC01CB01BC014A
:10270000CD010E944900DC01CB019E838D830FC067
:1027100080E991E09C838B838B819C810197F1F709
:102720009C838B838D819E8101979E838D838D8178
:102730009E81009769F714C06F81788589859A8595
:102740000E944900DC01CB019E838D838D819E8197
:102750009A83898389819A810197F1F79A83898382
:102760008F8598890A96988B8F878091D301282F1F
:1027700030E08F859889281739070CF076CF60965E
:102780000FB6F894DEBF0FBECDBFCF91DF91089595
:10279000DF93CF93CDB7DEB760970FB6F894DEBF67
:1027A0000FBECDBF188A1F8680C09F8582E0692F2B
:1027B0000E94931080E060E00E94E51080E090E0CD
:1027C000A0E0B0E08B879C87AD87BE876B857C855A
:1027D0008D859E8520E030E04AE755E40E941F0287
:1027E000DC01CB018F839887A987BA876F817885B1
:1027F00089859A8520E030E040E85FE30E94250467
:1028000088232CF481E090E09E838D833FC06F810C
:10281000788589859A8520E03FEF4FE757E40E944D
:10282000C50318164CF56B857C858D859E8520E04B
:1028300030E040E251E40E941F02DC01CB01BC0108
:10284000CD010E944900DC01CB019E838D830FC026
:1028500080E991E09C838B838B819C810197F1F7C8
:102860009C838B838D819E8101979E838D838D8137
:102870009E81009769F714C06F81788589859A8554
:102880000E944900DC01CB019E838D838D819E8156
:102890009A83898389819A810197F1F79A83898341
:1028A0008F8598890A96988B8F878F85988985362A
:1028B00091050CF47ACF60960FB6F894DEBF0FBE88
:1028C000CDBFCF91DF910895DF93CF93CDB7DEB722
:1028D00060970FB6F894DEBF0FBECDBF188A1F8673
:1028E00080C080E060E00E9493109F8581E0692FA6
:1028F0000E94E51080E090E0A0E0B0E08B879C872C
:10290000AD87BE876B857C858D859E8520E030E018
:102910004AE755E40E941F02DC01CB018F839887B0
:10292000A987BA876F81788589859A8520E030E00C
:1029300040E85FE30E94250488232CF481E090E0C6
:102940009E838D833FC06F81788589859A8520E03D
:102950003FEF4FE757E40E94C50318164CF56B850F
:102960007C858D859E8520E030E040E251E40E9428
:102970001F02DC01CB01BC01CD010E944900DC013A
:10298000CB019E838D830FC080E991E09C838B8374
:102990008B819C810197F1F79C838B838D819E8134
:1029A00001979E838D838D819E81009769F714C066
:1029B0006F81788589859A850E944900DC01CB0169
:1029C0009E838D838D819E819A83898389819A815B
:1029D0000197F1F79A8389838F8598890A96988B56
:1029E0008F878091D301282F30E08F859889281711
:1029F00039070CF076CF60960FB6F894DEBF0FBEA5
:102A0000CDBFCF91DF910895DF93CF93CDB7DEB7E0
:102A100060970FB6F894DEBF0FBECDBF188A1F8631
:102A200080C09F8581E0692F0E94931080E060E064
:102A30000E94E51080E090E0A0E0B0E08B879C87EA
:102A4000AD87BE876B857C858D859E8520E030E0D7
:102A50004AE755E40E941F02DC01CB018F8398876F
:102A6000A987BA876F81788589859A8520E030E0CB
:102A700040E85FE30E94250488232CF481E090E085
:102A80009E838D833FC06F81788589859A8520E0FC
:102A90003FEF4FE757E40E94C50318164CF56B85CE
:102AA0007C858D859E8520E030E040E251E40E94E7
:102AB0001F02DC01CB01BC01CD010E944900DC01F9
:102AC000CB019E838D830FC080E991E09C838B8333
:102AD0008B819C810197F1F79C838B838D819E81F3
:102AE00001979E838D838D819E81009769F714C025
:102AF0006F81788589859A850E944900DC01CB0128
:102B00009E838D838D819E819A83898389819A8119
:102B10000197F1F79A8389838F8598890A96988B14
:102B20008F878091D301282F30E08F8598892817CF
:102B300039070CF076CF60960FB6F894DEBF0FBE63
:102B4000CDBFCF91DF910895DF93CF93CDB7DEB79F
:102B50002E970FB6F894DEBF0FBECDBF80E061E0C8
:102B600041E00E94F30980E062E041E00E94F30945
:102B700080E090E0A0EAB1E48B879C87AD87BE87B8
:102B80006B857C858D859E8520E030E04AE755E4A5
:102B90000E941F02DC01CB018F839887A987BA8727
:102BA0006F81788589859A8520E030E040E85FE391
:102BB0000E94250488232CF481E090E09E838D837D
:102BC0003FC06F81788589859A8520E03FEF4FE788
:102BD00057E40E94C50318164CF56B857C858D85DE
:102BE0009E8520E030E040E251E40E941F02DC01BB
:102BF000CB01BC01CD010E944900DC01CB019E83C9
:102C00008D830FC080E991E09C838B838B819C81B5
:102C10000197F1F79C838B838D819E8101979E8321
:102C20008D838D819E81009769F714C06F817885AF
:102C300089859A850E944900DC01CB019E838D83A2
:102C40008D819E819A83898389819A810197F1F789
:102C50009A83898380E063E041E00E94F30980E089
:102C600064E041E00E94F30980E065E041E00E94F9
:102C7000F30980E066E041E00E94F30983E30E94EB
:102C8000561682E30E94561688E20E9456168CE081
:102C90000E94561681E00E9456162E960FB6F894A2
:102CA000DEBF0FBECDBFCF91DF9108950F931F936D
:102CB000DF93CF93CDB7DEB7C356D0400FB6F894AD
:102CC000DEBF0FBECDBFFE01ED59FF4F808380E018
:102CD00061E040E00E94DE0AFE01E15AFF4F80E021
:102CE00090E0A0E8BFE380839183A283B3838E0149
:102CF000055A1F4FFE01E15AFF4F608171818281A9
:102D0000938120E030E04AE755E40E941F02DC0195
:102D1000CB01F80180839183A283B383FE01E55A3E
:102D2000FF4F608171818281938120E030E040E833
:102D30005FE30E942504882344F4FE01E75AFF4F15
:102D400081E090E09183808364C0FE01E55AFF4FEB
:102D5000608171818281938120E03FEF4FE757E4EA
:102D60000E94C50318160CF043C0FE01E15AFF4F44
:102D7000608171818281938120E030E040E251E402
:102D80000E941F02DC01CB018E01075A1F4FBC01BC
:102D9000CD010E944900DC01CB01F80191838083C1
:102DA0001FC0FE01E95AFF4F80E991E091838083C3
:102DB000FE01E95AFF4F808191810197F1F7FE01F1
:102DC000E95AFF4F91838083DE01A75ABF4FFE016E
:102DD000E75AFF4F80819181019711969C938E93C2
:102DE000FE01E75AFF4F808191810097D1F627C0FD
:102DF0008E01075A1F4FFE01E55AFF4F6081718116
:102E0000828193810E944900DC01CB01F80191830A
:102E10008083DE01AB5ABF4FFE01E75AFF4F80812E
:102E200091818D939C93FE01EB5AFF4F808191819C
:102E30000197F1F7FE01EB5AFF4F9183808380E009
:102E400062E041E00E94DE0AFE01EF5AFF4F80E09F
:102E500090E0A0E8BFE380839183A283B3838E01D7
:102E6000035B1F4FFE01EF5AFF4F6081718182812A
:102E7000938120E030E04AE755E40E941F02DC0124
:102E8000CB01F80180839183A283B383FE01E35BCE
:102E9000FF4F608171818281938120E030E040E8C2
:102EA0005FE30E942504882344F4FE01E55BFF4FA5
:102EB00081E090E09183808364C0FE01E35BFF4F7B
:102EC000608171818281938120E03FEF4FE757E479
:102ED0000E94C50318160CF043C0FE01EF5AFF4FC5
:102EE000608171818281938120E030E040E251E491
:102EF0000E941F02DC01CB018E01055B1F4FBC014C
:102F0000CD010E944900DC01CB01F801918380834F
:102F10001FC0FE01E75BFF4F80E991E09183808352
:102F2000FE01E75BFF4F808191810197F1F7FE0180
:102F3000E75BFF4F91838083DE01A55BBF4FFE01FE
:102F4000E55BFF4F80819181019711969C938E9351
:102F5000FE01E55BFF4F808191810097D1F627C08C
:102F60008E01055B1F4FFE01E35BFF4F60817181A6
:102F7000828193810E944900DC01CB01F801918399
:102F80008083DE01A95BBF4FFE01E55BFF4F8081BF
:102F900091818D939C93FE01E95BFF4F808191812C
:102FA0000197F1F7FE01E95BFF4F91838083FE01FA
:102FB000ED59FF4F8081882F90E08071907095953A
:102FC0008795959587959595879595958795982F4C
:102FD00080E063E0492F0E94DE0AFE01ED59FF4FB9
:102FE0008081882F90E08072907095958795959557
:102FF0008795959587959595879595958795982F1C
:1030000080E064E0492F0E94DE0AFE01ED59FF4F87
:103010008081882F90E080749070082E892F000C9A
:10302000881F990B000C881F991F982F80E065E07E
:10303000492F0E94DE0AFE01ED59FF4F8081982F33
:10304000991F9927991F80E066E0492F0E94DE0AA8
:10305000FE01ED5BFF4F80E090E0A0E8BFE38083DE
:103060009183A283B3838E01015C1F4FFE01ED5B50
:10307000FF4F608171818281938120E030E04AE7D7
:1030800055E40E941F02DC01CB01F801808391838B
:10309000A283B383FE01FF96608171818281938157
:1030A00020E030E040E85FE30E94250488232CF410
:1030B00081E090E09EAF8DAF46C0FE01FF9660813B
:1030C00071818281938120E03FEF4FE757E40E94B6
:1030D000C503181664F5FE01ED5BFF4F6081718139
:1030E0008281938120E030E040E251E40E941F029F
:1030F000DC01CB01BC01CD010E944900DC01CB0108
:103100009EAF8DAF0FC080E991E09CAF8BAF8BADD0
:103110009CAD0197F1F79CAF8BAF8DAD9EAD019744
:103120009EAF8DAF8DAD9EAD009769F716C0FE01C5
:10313000FF9660817181828193810E944900DC0148
:10314000CB019EAF8DAF8DAD9EAD9AAF89AF89ADEE
:103150009AAD0197F1F79AAF89AF80E062E040E065
:103160000E94DE0A80E090E0A0E8BFE38DAB9EAB5A
:10317000AFABB8AF6DA97EA98FA998AD20E030E0C4
:103180004AE755E40E941F02DC01CB0189AB9AABF0
:10319000ABABBCAB69A97AA98BA99CA920E030E0B4
:1031A00040E85FE30E94250488232CF481E090E04E
:1031B00098AB8FA73FC069A97AA98BA99CA920E0E9
:1031C0003FEF4FE757E40E94C50318164CF56DA971
:1031D0007EA98FA998AD20E030E040E251E40E9442
:1031E0001F02DC01CB01BC01CD010E944900DC01C2
:1031F000CB0198AB8FA70FC080E991E09EA78DA768
:103200008DA59EA50197F1F79EA78DA78FA598A9DB
:10321000019798AB8FA78FA598A9009769F714C05D
:1032200069A97AA98BA99CA90E944900DC01CB015C
:1032300098AB8FA78FA598A99CA78BA78BA59CA5BA
:103240000197F1F79CA78BA780E062E041E00E9424
:10325000DE0A80E090E0A0E8BFE38FA398A7A9A7CB
:10326000BAA76FA178A589A59AA520E030E04AE722
:1032700055E40E941F02DC01CB018BA39CA3ADA3EC
:10328000BEA36BA17CA18DA19EA120E030E040E80F
:103290005FE30E94250488232CF481E090E09AA348
:1032A00089A33FC06BA17CA18DA19EA120E03FEF2F
:1032B0004FE757E40E94C50318164CF56FA178A597
:1032C00089A59AA520E030E040E251E40E941F0267
:1032D000DC01CB01BC01CD010E944900DC01CB0126
:1032E0009AA389A30FC080E991E098A38F8F8F8D57
:1032F00098A10197F1F798A38F8F89A19AA10197BF
:103300009AA389A389A19AA1009769F714C06BA118
:103310007CA18DA19EA10E944900DC01CB019AA352
:1033200089A389A19AA19E8F8D8F8D8D9E8D0197E6
:10333000F1F79E8F8D8FFE01ED59FF4F8081982F01
:10334000917080E063E0492F0E94DE0AFE01ED5992
:10335000FF4F8081882F90E08270907095958795BF
:10336000982F80E064E0492F0E94DE0AFE01ED59AB
:10337000FF4F8081882F90E084709070959587959D
:1033800095958795982F80E065E0492F0E94DE0A89
:10339000FE01ED59FF4F8081882F90E0887090707A
:1033A000959587959595879595958795982F80E024
:1033B00066E0492F0E94DE0A80E090E0A0E8BFE3CB
:1033C000898F9A8FAB8FBC8F698D7A8D8B8D9C8DF9
:1033D00020E030E04AE755E40E941F02DC01CB0107
:1033E0008D8B9E8BAF8BB88F6D897E898F89988DE1
:1033F00020E030E040E85FE30E94250488232CF4BD
:1034000081E090E09C8B8B8B3FC06D897E898F899A
:10341000988D20E03FEF4FE757E40E94C503181650
:103420004CF5698D7A8D8B8D9C8D20E030E040E2EB
:1034300051E40E941F02DC01CB01BC01CD010E94BE
:103440004900DC01CB019C8B8B8B0FC080E991E0A4
:103450009A8B898B89899A890197F1F79A8B898B45
:103460008B899C8901979C8B8B8B8B899C8900977E
:1034700069F714C06D897E898F89988D0E944900F3
:10348000DC01CB019C8B8B8B8B899C89988B8F87E4
:103490008F8598890197F1F7988B8F8780E062E09C
:1034A00040E00E94DE0A80E090E0A0E8BFE38B8766
:1034B0009C87AD87BE876B857C858D859E8520E04A
:1034C00030E04AE755E40E941F02DC01CB018F8304
:1034D0009887A987BA876F81788589859A8520E042
:1034E00030E040E85FE30E94250488232CF481E06B
:1034F00090E09E838D833FC06F81788589859A8512
:1035000020E03FEF4FE757E40E94C50318164CF543
:103510006B857C858D859E8520E030E040E251E41E
:103520000E941F02DC01CB01BC01CD010E944900B9
:10353000DC01CB019E838D830FC080E991E09C83E9
:103540008B838B819C810197F1F79C838B838D8189
:103550009E8101979E838D838D819E81009769F75F
:1035600014C06F81788589859A850E944900DC01A5
:10357000CB019E838D838D819E819A8389838981EE
:103580009A810197F1F79A838983CD59DF4F0FB65E
:10359000F894DEBF0FBECDBFCF91DF911F910F9189
:1035A00008950F931F93DF93CF93CDB7DEB7C35624
:1035B000D0400FB6F894DEBF0FBECDBFFE01ED596F
:1035C000FF4F808380E061E041E00E94DE0AFE015F
:1035D000E15AFF4F80E090E0A0E8BFE38083918351
:1035E000A283B3838E01055A1F4FFE01E15AFF4F9C
:1035F000608171818281938120E030E04AE755E467
:103600000E941F02DC01CB01F80180839183A28319
:10361000B383FE01E55AFF4F6081718182819381FE
:1036200020E030E040E85FE30E942504882344F472
:10363000FE01E75AFF4F81E090E09183808364C0F0
:10364000FE01E55AFF4F608171818281938120E004
:103650003FEF4FE757E40E94C50318160CF043C034
:10366000FE01E15AFF4F608171818281938120E0E8
:1036700030E040E251E40E941F02DC01CB018E01E8
:10368000075A1F4FBC01CD010E944900DC01CB014C
:10369000F801918380831FC0FE01E95AFF4F80E942
:1036A00091E091838083FE01E95AFF4F80819181EF
:1036B0000197F1F7FE01E95AFF4F91838083DE0104
:1036C000A75ABF4FFE01E75AFF4F808191810197B2
:1036D00011969C938E93FE01E75AFF4F8081918152
:1036E0000097D1F627C08E01075A1F4FFE01E55AF9
:1036F000FF4F60817181828193810E944900DC01CA
:10370000CB01F80191838083DE01AB5ABF4FFE01EC
:10371000E75AFF4F808191818D939C93FE01EB5A74
:10372000FF4F808191810197F1F7FE01EB5AFF4F26
:103730009183808380E062E041E00E94DE0AFE0126
:10374000EF5AFF4F80E090E0A0E8BFE380839183D1
:10375000A283B3838E01035B1F4FFE01EF5AFF4F1D
:10376000608171818281938120E030E04AE755E4F5
:103770000E941F02DC01CB01F80180839183A283A8
:10378000B383FE01E35BFF4F60817181828193818E
:1037900020E030E040E85FE30E942504882344F401
:1037A000FE01E55BFF4F81E090E09183808364C080
:1037B000FE01E35BFF4F608171818281938120E094
:1037C0003FEF4FE757E40E94C50318160CF043C0C3
:1037D000FE01EF5AFF4F608171818281938120E069
:1037E00030E040E251E40E941F02DC01CB018E0177
:1037F000055B1F4FBC01CD010E944900DC01CB01DC
:10380000F801918380831FC0FE01E75BFF4F80E9D1
:1038100091E091838083FE01E75BFF4F808191817E
:103820000197F1F7FE01E75BFF4F91838083DE0193
:10383000A55BBF4FFE01E55BFF4F80819181019742
:1038400011969C938E93FE01E55BFF4F80819181E1
:103850000097D1F627C08E01055B1F4FFE01E35B89
:10386000FF4F60817181828193810E944900DC0158
:10387000CB01F80191838083DE01A95BBF4FFE017C
:10388000E55BFF4F808191818D939C93FE01E95B05
:10389000FF4F808191810197F1F7FE01E95BFF4FB6
:1038A00091838083FE01ED59FF4F8081882F90E046
:1038B0008071907095958795959587959595879545
:1038C00095958795982F80E063E0492F0E94DE0A46
:1038D000FE01ED59FF4F8081882F90E0807290703B
:1038E00095958795959587959595879595958795C0
:1038F00095958795982F80E064E0492F0E94DE0A15
:10390000FE01ED59FF4F8081882F90E08074907008
:10391000082E892F000C881F990B000C881F991FF7
:10392000982F80E065E0492F0E94DE0AFE01ED59E4
:10393000FF4F8081982F991F9927991F80E066E09B
:10394000492F0E94DE0AFE01ED5BFF4F80E090E010
:10395000A0E8BFE380839183A283B3838E01015CDF
:103960001F4FFE01ED5BFF4F60817181828193816A
:1039700020E030E04AE755E40E941F02DC01CB0161
:10398000F80180839183A283B383FE01FF96608157
:1039900071818281938120E030E040E85FE30E9402
:1039A000250488232CF481E090E09EAF8DAF46C0C3
:1039B000FE01FF96608171818281938120E03FEF5B
:1039C0004FE757E40E94C503181664F5FE01ED5B4E
:1039D000FF4F608171818281938120E030E040E27D
:1039E00051E40E941F02DC01CB01BC01CD010E9409
:1039F0004900DC01CB019EAF8DAF0FC080E991E0A3
:103A00009CAF8BAF8BAD9CAD0197F1F79CAF8BAFAB
:103A10008DAD9EAD01979EAF8DAF8DAD9EAD0097E4
:103A200069F716C0FE01FF966081718182819381E2
:103A30000E944900DC01CB019EAF8DAF8DAD9EADE4
:103A40009AAF89AF89AD9AAD0197F1F79AAF89AF77
:103A500080E062E040E00E94DE0A80E090E0A0E8C2
:103A6000BFE38DAB9EABAFABB8AF6DA97EA98FA9FD
:103A700098AD20E030E04AE755E40E941F02DC01E7
:103A8000CB0189AB9AABABABBCAB69A97AA98BA9CB
:103A90009CA920E030E040E85FE30E9425048823F1
:103AA0002CF481E090E098AB8FA73FC069A97AA978
:103AB0008BA99CA920E03FEF4FE757E40E94C50384
:103AC00018164CF56DA97EA98FA998AD20E030E0BD
:103AD00040E251E40E941F02DC01CB01BC01CD0198
:103AE0000E944900DC01CB0198AB8FA70FC080E991
:103AF00091E09EA78DA78DA59EA50197F1F79EA7A2
:103B00008DA78FA598A9019798AB8FA78FA598A986
:103B1000009769F714C069A97AA98BA99CA90E948A
:103B20004900DC01CB0198AB8FA78FA598A99CA772
:103B30008BA78BA59CA50197F1F79CA78BA780E08D
:103B400062E041E00E94DE0A80E090E0A0E8BFE38E
:103B50008FA398A7A9A7BAA76FA178A589A59AA5A9
:103B600020E030E04AE755E40E941F02DC01CB016F
:103B70008BA39CA3ADA3BEA36BA17CA18DA19EA191
:103B800020E030E040E85FE30E94250488232CF425
:103B900081E090E09AA389A33FC06BA17CA18DA195
:103BA0009EA120E03FEF4FE757E40E94C50318169F
:103BB0004CF56FA178A589A59AA520E030E040E2F8
:103BC00051E40E941F02DC01CB01BC01CD010E9427
:103BD0004900DC01CB019AA389A30FC080E991E0E1
:103BE00098A38F8F8F8D98A10197F1F798A38F8F4E
:103BF00089A19AA101979AA389A389A19AA1009763
:103C000069F714C06BA17CA18DA19EA10E944900FF
:103C1000DC01CB019AA389A389A19AA19E8F8D8FE4
:103C20008D8D9E8D0197F1F79E8F8D8FFE01ED5941
:103C3000FF4F8081982F917080E063E0492F0E94B0
:103C4000DE0AFE01ED59FF4F8081882F90E08270DF
:103C5000907095958795982F80E064E0492F0E9499
:103C6000DE0AFE01ED59FF4F8081882F90E08470BD
:103C700090709595879595958795982F80E065E04C
:103C8000492F0E94DE0AFE01ED59FF4F8081882FE7
:103C900090E0887090709595879595958795959506
:103CA0008795982F80E066E0492F0E94DE0A80E029
:103CB00090E0A0E8BFE3898F9A8FAB8FBC8F698DAE
:103CC0007A8D8B8D9C8D20E030E04AE755E40E9490
:103CD0001F02DC01CB018D8B9E8BAF8BB88F6D8962
:103CE0007E898F89988D20E030E040E85FE30E9474
:103CF000250488232CF481E090E09C8B8B8B3FC0C3
:103D00006D897E898F89988D20E03FEF4FE757E4DA
:103D10000E94C50318164CF5698D7A8D8B8D9C8D8C
:103D200020E030E040E251E40E941F02DC01CB01C0
:103D3000BC01CD010E944900DC01CB019C8B8B8B27
:103D40000FC080E991E09A8B898B89899A890197C4
:103D5000F1F79A8B898B8B899C8901979C8B8B8B34
:103D60008B899C89009769F714C06D897E898F893A
:103D7000988D0E944900DC01CB019C8B8B8B8B8939
:103D80009C89988B8F878F8598890197F1F7988BFD
:103D90008F8780E062E040E00E94DE0A80E090E0F1
:103DA000A0E8BFE38B879C87AD87BE876B857C854A
:103DB0008D859E8520E030E04AE755E40E941F0291
:103DC000DC01CB018F839887A987BA876F817885BB
:103DD00089859A8520E030E040E85FE30E94250471
:103DE00088232CF481E090E09E838D833FC06F8117
:103DF000788589859A8520E03FEF4FE757E40E9458
:103E0000C50318164CF56B857C858D859E8520E055
:103E100030E040E251E40E941F02DC01CB01BC0112
:103E2000CD010E944900DC01CB019E838D830FC030
:103E300080E991E09C838B838B819C810197F1F7D2
:103E40009C838B838D819E8101979E838D838D8141
:103E50009E81009769F714C06F81788589859A855E
:103E60000E944900DC01CB019E838D838D819E8160
:103E70009A83898389819A810197F1F79A8389834B
:103E8000CD59DF4F0FB6F894DEBF0FBECDBFCF9137
:103E9000DF911F910F910895DF93CF9300D00F9280
:103EA000CDB7DEB79B838A8319820EC08981282F04
:103EB00030E08A819B81FC01E20FF31F80810E9428
:103EC000D11A89818F5F89838981282F30E08A8187
:103ED0009B81FC01E20FF31F8081882339F70F904B
:103EE0000F900F90CF91DF910895DF93CF9300D083
:103EF00000D00F92CDB7DEB78A836B838A81282FDB
:103F000030E03D832C838C819D8181309105C1F00F
:103F10002C813D81223031052CF48C819D810097CC
:103F200061F019C02C813D812230310569F08C810E
:103F30009D818330910561F00EC08B8189830BC018
:103F40008B81805C898307C08B81805F898303C0FC
:103F50008B81805B8983898180680E9456160F90CF
:103F60000F900F900F900F90CF91DF910895DF93F6
:103F7000CF9300D000D0CDB7DEB789836A835C834E
:103F80004B8389816A810E94751F8B819C810E946D
:103F90004C1F0F900F900F900F90CF91DF910895CD
:103FA000DF93CF93CDB7DEB762970FB6F894DEBF3D
:103FB0000FBECDBF9A8B898B89899A899E012F5F0D
:103FC0003F4FB9014AE050E00E94942DCE01019686
:103FD0000E944C1F62960FB6F894DEBF0FBECDBF95
:103FE000CF91DF910895DF93CF93CDB7DEB781E016
:103FF0000E945616CF91DF910895DF93CF93CDB7EE
:10400000DEB782E060E041E00E94F30982E061E017
:1040100041E00E94F30982E062E041E00E94F3097E
:1040200082E060E040E00E94DE0A82E061E040E081
:104030000E94DE0A82E062E040E00E94DE0ACF9148
:10404000DF910895DF93CF9300D00F92CDB7DEB705
:1040500089838981282F30E03B832A838A819B8151
:104060008130910579F02A813B812230310581F040
:104070008A819B81009789F482E060E041E00E94A0
:10408000DE0A0BC082E061E041E00E94DE0A05C06A
:1040900082E062E041E00E94DE0A0F900F900F90F4
:1040A000CF91DF910895DF93CF9300D00F92CDB7DA
:1040B000DEB789838981282F30E03B832A838A8178
:1040C0009B818130910579F02A813B812230310535
:1040D00081F08A819B81009789F482E060E040E072
:1040E0000E94DE0A0BC082E061E040E00E94DE0A2E
:1040F00005C082E062E040E00E94DE0A0F900F906F
:104100000F90CF91DF910895DF93CF93CDB7DEB7B6
:104110000E947912CF91DF910895DF93CF93CDB7AD
:10412000DEB70E947912CF91DF9108950F931F930C
:10413000DF93CF93CDB7DEB7CB55D0400FB6F89411
:10414000DEBF0FBECDBFAFE5B0E0EFE5F0E08081B0
:1041500080688C93FE01EB5AFF4F108281EC91E056
:104160000E94170784E60E9454100E9420100E94AB
:10417000A4150E94F31F0E94FD1F0E94D30EFE0192
:10418000EA5AFF4F1082FE01EA5AFF4F83E0818313
:1041900084E890E260E00E949A0ECE018A5A9F4F16
:1041A0000E94CA0DFE01E85AFF4F81E08083FE01A4
:1041B000E85AFF4F83E081838DE890E261E00E943E
:1041C0009A0ECE01885A9F4F0E94CA0D0E9431104C
:1041D0008093D4010E943C108093D5018091D4013A
:1041E000882309F454C18091D501882309F44FC173
:1041F00080E00E94222081E00E9422200E94F31F82
:1042000020E630E080E060E0A9010E94B71F20E7CF
:1042100030E081E060E0A9010E94B71FFE01EF5A83
:10422000FF4F80E090E0AAEFB3E480839183A28304
:10423000B3838E01035B1F4FFE01EF5AFF4F608176
:1042400071818281938120E030E04AE755E40E9449
:104250001F02DC01CB01F80180839183A283B38329
:10426000FE01E35BFF4F608171818281938120E0D9
:1042700030E040E85FE30E942504882344F4FE0117
:10428000E55BFF4F81E090E09183808364C0FE0195
:10429000E35BFF4F608171818281938120E03FEF7A
:1042A0004FE757E40E94C50318160CF043C0FE0107
:1042B000EF5AFF4F608171818281938120E030E06D
:1042C00040E251E40E941F02DC01CB018E01055B3C
:1042D0001F4FBC01CD010E944900DC01CB01F80158
:1042E000918380831FC0FE01E75BFF4F80E991E06F
:1042F00091838083FE01E75BFF4F8081918101976D
:10430000F1F7FE01E75BFF4F91838083DE01A55B40
:10431000BF4FFE01E55BFF4F8081918101971196B0
:104320009C938E93FE01E55BFF4F80819181009706
:10433000D1F627C08E01055B1F4FFE01E35BFF4FE7
:1043400060817181828193810E944900DC01CB01EF
:10435000F80191838083DE01A95BBF4FFE01E55B1D
:10436000FF4F808191818D939C93FE01E95BFF4F0C
:10437000808191810197F1F7FE01E95BFF4F918305
:104380008083FE01ED5BFF4F80E090E0AAEFB3E495
:1043900080839183A283B3838E01015C1F4FFE0152
:1043A000ED5BFF4F608171818281938120E030E07D
:1043B0004AE755E40E941F02DC01CB01F80180832B
:1043C0009183A283B383FE01FF9660817181828114
:1043D000938120E030E040E85FE30E9425048823D9
:1043E0002CF481E090E09EAF8DAF46C0FE01FF96B9
:1043F000608171818281938120E03FEF4FE757E434
:104400000E94C503181664F5FE01ED5BFF4F608145
:1044100071818281938120E030E040E251E40E948A
:104420001F02DC01CB01BC01CD010E944900DC016F
:10443000CB019EAF8DAF0FC080E991E09CAF8BAFF9
:104440008BAD9CAD0197F1F79CAF8BAF8DAD9EAD61
:1044500001979EAF8DAF8DAD9EAD009769F71FC0E0
:10446000FE01FF9660817181828193810E944900E3
:10447000DC01CB019EAF8DAF8DAD9EAD9AAF89AF04
:1044800089AD9AAD0197F1F79AAF89AF08C080E086
:104490000E94532081E00E9453200E94F31F8091CC
:1044A000D401882309F4FDC08091D501882309F047
:1044B000F8C080E00E9422200E94F31F20E630E036
:1044C00080E060E0A9010E94B71F20E830E081E0B1
:1044D00060E0A9010E94B71F80E090E0AAEFB3E47A
:1044E0008DAB9EABAFABB8AF6DA97EA98FA998ADD0
:1044F00020E030E04AE755E40E941F02DC01CB01D6
:1045000089AB9AABABABBCAB69A97AA98BA99CA9C7
:1045100020E030E040E85FE30E94250488232CF48B
:1045200081E090E098AB8FA73FC069A97AA98BA9D9
:104530009CA920E03FEF4FE757E40E94C5031816FF
:104540004CF56DA97EA98FA998AD20E030E040E23E
:1045500051E40E941F02DC01CB01BC01CD010E948D
:104560004900DC01CB0198AB8FA70FC080E991E037
:104570009EA78DA78DA59EA50197F1F79EA78DA754
:104580008FA598A9019798AB8FA78FA598A9009799
:1045900069F714C069A97AA98BA99CA90E9449004E
:1045A000DC01CB0198AB8FA78FA598A99CA78BA7FF
:1045B0008BA59CA50197F1F79CA78BA780E090E0C5
:1045C000AAEFB3E48FA398A7A9A7BAA76FA178A56C
:1045D00089A59AA520E030E04AE755E40E941F0231
:1045E000DC01CB018BA39CA3ADA3BEA36BA17CA1DB
:1045F0008DA19EA120E030E040E85FE30E94250409
:1046000088232CF481E090E09AA389A33FC06BA19A
:104610007CA18DA19EA120E03FEF4FE757E40E94CF
:10462000C50318164CF56FA178A589A59AA520E0B9
:1046300030E040E251E40E941F02DC01CB01BC01EA
:10464000CD010E944900DC01CB019AA389A30FC0D0
:1046500080E991E098A38F8F8F8D98A10197F1F752
:1046600098A38F8F89A19AA101979AA389A389A161
:104670009AA1009769F71AC06BA17CA18DA19EA198
:104680000E944900DC01CB019AA389A389A19AA1C8
:104690009E8F8D8F8D8D9E8D0197F1F79E8F8D8FC3
:1046A00005C080E00E9453200E94F31F8091D40136
:1046B000882309F0FDC08091D501882309F4F8C052
:1046C00081E00E9422200E94F31F20E630E080E07B
:1046D00060E0A9010E94B71F28E830E081E060E0B7
:1046E000A9010E94B71F80E090E0AAEFB3E4898F90
:1046F0009A8FAB8FBC8F698D7A8D8B8D9C8D20E0CE
:1047000030E04AE755E40E941F02DC01CB018D8BAB
:104710009E8BAF8BB88F6D897E898F89988D20E0B5
:1047200030E040E85FE30E94250488232CF481E018
:1047300090E09C8B8B8B3FC06D897E898F89988D93
:1047400020E03FEF4FE757E40E94C50318164CF5F1
:10475000698D7A8D8B8D9C8D20E030E040E251E4B4
:104760000E941F02DC01CB01BC01CD010E94490067
:10477000DC01CB019C8B8B8B0FC080E991E09A8B85
:10478000898B89899A890197F1F79A8B898B8B8913
:104790009C8901979C8B8B8B8B899C89009769F7EF
:1047A00014C06D897E898F89988D0E944900DC0133
:1047B000CB019C8B8B8B8B899C89988B8F878F856A
:1047C00098890197F1F7988B8F8780E090E0AAEFA6
:1047D000B3E48B879C87AD87BE876B857C858D8591
:1047E0009E8520E030E04AE755E40E941F02DC018C
:1047F000CB018F839887A987BA876F817885898550
:104800009A8520E030E040E85FE30E942504882399
:104810002CF481E090E09E838D833FC06F8178858A
:1048200089859A8520E03FEF4FE757E40E94C50352
:1048300018164CF56B857C858D859E8520E030E0D3
:1048400040E251E40E941F02DC01CB01BC01CD011A
:104850000E944900DC01CB019E838D830FC080E95B
:1048600091E09C838B838B819C810197F1F79C83E2
:104870008B838D819E8101979E838D838D819E8107
:10488000009769F71AC06F81788589859A850E949B
:104890004900DC01CB019E838D838D819E819A83AB
:1048A000898389819A810197F1F79A83898305C069
:1048B00081E00E9453200E94F31F0E949707FE018F
:1048C000EB5AFF4F8083FE01EB5AFF4F8081282F68
:1048D00030E06C963FAF2EAF6C976C968EAD9FAD6F
:1048E0006C978C34910509F471C06C96EEADFFADF8
:1048F0006C97ED34F10544F56C962EAD3FAD6C9799
:104900002234310509F44FC06C968EAD9FAD6C9783
:10491000833491054CF46C96EEADFFAD6C97E134A9
:10492000F10509F45BC052CC6C962EAD3FAD6C978F
:104930002634310581F16C968EAD9FAD6C9788342D
:10494000910509F453C042CC6C96EEADFFAD6C9767
:10495000E035F10509F452C06C962EAD3FAD6C9771
:10496000213531054CF46C968EAD9FAD6C978D342E
:10497000910509F446C02ACC6C96EEADFFAD6C975C
:10498000E235F105D9F06C962EAD3FAD6C9723352D
:10499000310589F01BCC8091D401882309F016CC15
:1049A0000E94371113CC8091D501882309F00ECCD9
:1049B0000E94D8110BCC0E94791208CC8091D401AE
:1049C000882309F003CC0E94881200CC8091D40186
:1049D000882309F0FBCB0E942813F8CB8091D501E6
:1049E000882309F0F3CB0E946414F0CB8091D501A9
:1049F000882309F0EBCB0E940415E8CB0E943625F2
:104A0000E5CB0E9497070E9408250E945410DECB38
:104A1000DF93CF9300D000D0CDB7DEB789838981F3
:104A2000282F30E03C832B838B819C81823391053E
:104A300069F02B813C812333310559F08B819C81B6
:104A40008133910549F496E49A8308C025E52A83C9
:104A500005C034E63A8302C084E68A838A810F90D7
:104A60000F900F900F90CF91DF9108950F931F93A8
:104A7000DF93CF93CDB7DEB7C95AD0400FB6F894C5
:104A8000DEBF0FBECDBFFE01E755FF4F10820E9473
:104A9000F31FFE01EB55FF4F80E090E0AAEFB3E477
:104AA00080839183A283B3838E010F551F4FFE0134
:104AB000EB55FF4F608171818281938120E030E06E
:104AC0004AE755E40E941F02DC01CB01F801808314
:104AD0009183A283B383FE01EF55FF4F6081718103
:104AE0008281938120E030E040E85FE30E9425046A
:104AF000882344F4FE01E156FF4F81E090E091836A
:104B0000808364C0FE01EF55FF4F60817181828117
:104B1000938120E03FEF4FE757E40E94C50318164A
:104B20000CF043C0FE01EB55FF4F60817181828123
:104B3000938120E030E040E251E40E941F02DC015A
:104B4000CB018E0101561F4FBC01CD010E944900CF
:104B5000DC01CB01F801918380831FC0FE01E35685
:104B6000FF4F80E991E091838083FE01E356FF4F80
:104B7000808191810197F1F7FE01E356FF4F918308
:104B80008083DE01A156BF4FFE01E156FF4F8081B9
:104B90009181019711969C938E93FE01E156FF4FF0
:104BA000808191810097D1F627C08E0101561F4F59
:104BB000FE01EF55FF4F60817181828193810E94D8
:104BC0004900DC01CB01F80191838083DE01A55609
:104BD000BF4FFE01E156FF4F808191818D939C93E1
:104BE000FE01E556FF4F808191810197F1F7FE01AB
:104BF000E556FF4F91838083FE01E956FF4F80E029
:104C000090E0AAEFB3E480839183A283B3838E0103
:104C10000D561F4FFE01E956FF4F60817181828161
:104C2000938120E030E04AE755E40E941F02DC0156
:104C3000CB01F80180839183A283B383FE01ED56FB
:104C4000FF4F608171818281938120E030E040E8F4
:104C50005FE30E942504882344F4FE01EF56FF4FD2
:104C600081E090E09183808364C0FE01ED56FF4FA8
:104C7000608171818281938120E03FEF4FE757E4AB
:104C80000E94C50318160CF043C0FE01E956FF4F01
:104C9000608171818281938120E030E040E251E4C3
:104CA0000E941F02DC01CB018E010F561F4FBC0179
:104CB000CD010E944900DC01CB01F8019183808382
:104CC0001FC0FE01E157FF4F80E991E0918380838F
:104CD000FE01E157FF4F808191810197F1F7FE01BD
:104CE000E157FF4F91838083DE01AF56BF4FFE0136
:104CF000EF56FF4F80819181019711969C938E937F
:104D0000FE01EF56FF4F808191810097D1F627C0B9
:104D10008E010F561F4FFE01ED56FF4F60817181CE
:104D2000828193810E944900DC01CB01F8019183CB
:104D30008083DE01A357BF4FFE01EF56FF4F8081F6
:104D400091818D939C93FE01E357FF4F8081918168
:104D50000197F1F7FE01E357FF4F918380830E9493
:104D6000C92C0E943711F2C50E94C92CFE01E757D9
:104D7000FF4F80E090E0A8ECB2E480839183A283AF
:104D8000B3838E010B571F4FFE01E757FF4F608122
:104D900071818281938120E030E04AE755E40E94EE
:104DA0001F02DC01CB01F80180839183A283B383CE
:104DB000FE01EB57FF4F608171818281938120E07A
:104DC00030E040E85FE30E942504882344F4FE01BC
:104DD000ED57FF4F81E090E09183808364C0FE0136
:104DE000EB57FF4F608171818281938120E03FEF1B
:104DF0004FE757E40E94C50318160CF043C0FE01AC
:104E0000E757FF4F608171818281938120E030E01C
:104E100040E251E40E941F02DC01CB018E010D57DC
:104E20001F4FBC01CD010E944900DC01CB01F801FC
:104E3000918380831FC0FE01EF57FF4F80E991E00F
:104E400091838083FE01EF57FF4F8081918101970D
:104E5000F1F7FE01EF57FF4F91838083DE01AD57DD
:104E6000BF4FFE01ED57FF4F808191810197119651
:104E70009C938E93FE01ED57FF4F808191810097A7
:104E8000D1F627C08E010D571F4FFE01EB57FF4F84
:104E900060817181828193810E944900DC01CB0194
:104EA000F80191838083DE01A158BF4FFE01ED57C9
:104EB000FF4F808191818D939C93FE01E158FF4FBC
:104EC000808191810197F1F7FE01E158FF4F9183B5
:104ED0008083DE01A755BF4FFE01E755FF4F80815C
:104EE0008F5F8C93FE01E755FF4F8081863008F479
:104EF0002DC521E930E081E060E0A9010E94B71FE3
:104F00000E947912FE01E558FF4F80E090E0AAEF81
:104F1000B3E480839183A283B3838E0109581F4F2A
:104F2000FE01E558FF4F608171818281938120E00D
:104F300030E04AE755E40E941F02DC01CB01F80192
:104F400080839183A283B383FE01E958FF4F608180
:104F500071818281938120E030E040E85FE30E942C
:104F60002504882344F4FE01EB58FF4F81E090E0D4
:104F70009183808364C0FE01E958FF4F6081718195
:104F80008281938120E03FEF4FE757E40E94C50301
:104F900018160CF043C0FE01E558FF4F6081718187
:104FA0008281938120E030E040E251E40E941F02C0
:104FB000DC01CB018E010B581F4FBC01CD010E94BB
:104FC0004900DC01CB01F801918380831FC0FE0101
:104FD000ED58FF4F80E991E091838083FE01ED5809
:104FE000FF4F808191810197F1F7FE01ED58FF4F4E
:104FF00091838083DE01AB58BF4FFE01EB58FF4F1A
:1050000080819181019711969C938E93FE01EB58BC
:10501000FF4F808191810097D1F627C08E010B58F8
:105020001F4FFE01E958FF4F60817181828193819A
:105030000E944900DC01CB01F80191838083DE01ED
:10504000AF58BF4FFE01EB58FF4F808191818D9388
:105050009C93FE01EF58FF4F808191810197F1F7FA
:10506000FE01EF58FF4F91838083FE01E359FF4F0C
:1050700080E090E0AAEFB3E480839183A283B383BE
:105080008E0107591F4FFE01E359FF4F6081718167
:105090008281938120E030E04AE755E40E941F02BC
:1050A000DC01CB01F80180839183A283B383FE01ED
:1050B000E759FF4F608171818281938120E030E068
:1050C00040E85FE30E942504882344F4FE01E95987
:1050D000FF4F81E090E09183808364C0FE01E75937
:1050E000FF4F608171818281938120E03FEF4FE724
:1050F00057E40E94C50318160CF043C0FE01E359A3
:10510000FF4F608171818281938120E030E040E235
:1051100051E40E941F02DC01CB018E0109591F4F8F
:10512000BC01CD010E944900DC01CB01F801918353
:1051300080831FC0FE01EB59FF4F80E991E091830E
:105140008083FE01EB59FF4F808191810197F1F738
:10515000FE01EB59FF4F91838083DE01A959BF4FB8
:10516000FE01E959FF4F80819181019711969C932F
:105170008E93FE01E959FF4F808191810097D1F60E
:1051800027C08E0109591F4FFE01E759FF4F60816B
:105190007181828193810E944900DC01CB01F80179
:1051A00091838083DE01AD59BF4FFE01E959FF4F66
:1051B000808191818D939C93FE01ED59FF4F8081F9
:1051C00091810197F1F7FE01ED59FF4F91838083A3
:1051D0000E94C813FE01E15AFF4F80E090E0AAEF61
:1051E000B3E480839183A283B3838E01055A1F4F5A
:1051F000FE01E15AFF4F608171818281938120E03D
:1052000030E04AE755E40E941F02DC01CB01F801BF
:1052100080839183A283B383FE01E55AFF4F6081AF
:1052200071818281938120E030E040E85FE30E9459
:105230002504882344F4FE01E75AFF4F81E090E003
:105240009183808364C0FE01E55AFF4F60817181C4
:105250008281938120E03FEF4FE757E40E94C5032E
:1052600018160CF043C0FE01E15AFF4F60817181B6
:105270008281938120E030E040E251E40E941F02ED
:10528000DC01CB018E01075A1F4FBC01CD010E94EA
:105290004900DC01CB01F801918380831FC0FE012E
:1052A000E95AFF4F80E991E091838083FE01E95A3A
:1052B000FF4F808191810197F1F7FE01E95AFF4F7D
:1052C00091838083DE01A75ABF4FFE01E75AFF4F4B
:1052D00080819181019711969C938E93FE01E75AEC
:1052E000FF4F808191810097D1F627C08E01075A28
:1052F0001F4FFE01E55AFF4F6081718182819381CA
:105300000E944900DC01CB01F80191838083DE011A
:10531000AB5ABF4FFE01E75AFF4F808191818D93B9
:105320009C93FE01EB5AFF4F808191810197F1F729
:10533000FE01EB5AFF4F918380830E947912FE0198
:10534000EF5AFF4F80E090E0AAEFB3E480839183AF
:10535000A283B3838E01035B1F4FFE01EF5AFF4F01
:10536000608171818281938120E030E04AE755E4D9
:105370000E941F02DC01CB01F80180839183A2838C
:10538000B383FE01E35BFF4F608171818281938172
:1053900020E030E040E85FE30E942504882344F4E5
:1053A000FE01E55BFF4F81E090E09183808364C064
:1053B000FE01E35BFF4F608171818281938120E078
:1053C0003FEF4FE757E40E94C50318160CF043C0A7
:1053D000FE01EF5AFF4F608171818281938120E04D
:1053E00030E040E251E40E941F02DC01CB018E015B
:1053F000055B1F4FBC01CD010E944900DC01CB01C0
:10540000F801918380831FC0FE01E75BFF4F80E9B5
:1054100091E091838083FE01E75BFF4F8081918162
:105420000197F1F7FE01E75BFF4F91838083DE0177
:10543000A55BBF4FFE01E55BFF4F80819181019726
:1054400011969C938E93FE01E55BFF4F80819181C5
:105450000097D1F627C08E01055B1F4FFE01E35B6D
:10546000FF4F60817181828193810E944900DC013C
:10547000CB01F80191838083DE01A95BBF4FFE0160
:10548000E55BFF4F808191818D939C93FE01E95BE9
:10549000FF4F808191810197F1F7FE01E95BFF4F9A
:1054A000918380830E94D811FE01ED5BFF4F80E065
:1054B00090E0AAEFB3E480839183A283B3838E014B
:1054C000015C1F4FFE01ED5BFF4F608171818281A6
:1054D000938120E030E04AE755E40E941F02DC019E
:1054E000CB01F80180839183A283B383FE01FF96F1
:1054F000608171818281938120E030E040E85FE348
:105500000E94250488232CF481E090E09EAF8DAFAB
:1055100046C0FE01FF96608171818281938120E007
:105520003FEF4FE757E40E94C503181664F5FE01EC
:10553000ED5BFF4F608171818281938120E030E0DB
:1055400040E251E40E941F02DC01CB01BC01CD010D
:105550000E944900DC01CB019EAF8DAF0FC080E9F6
:1055600091E09CAF8BAF8BAD9CAD0197F1F79CAFF9
:105570008BAF8DAD9EAD01979EAF8DAF8DAD9EADC6
:10558000009769F716C0FE01FF96608171818281E4
:1055900093810E944900DC01CB019EAF8DAF8DADA0
:1055A0009EAD9AAF89AF89AD9AAD0197F1F79AAFE9
:1055B00089AF80E090E0AAEFB3E48DAB9EABAFABD8
:1055C000B8AF6DA97EA98FA998AD20E030E04AE779
:1055D00055E40E941F02DC01CB0189AB9AABABAB57
:1055E000BCAB69A97AA98BA99CA920E030E040E86E
:1055F0005FE30E94250488232CF481E090E098ABBF
:105600008FA73FC069A97AA98BA99CA920E03FEF89
:105610004FE757E40E94C50318164CF56DA97EA903
:105620008FA998AD20E030E040E251E40E941F02D3
:10563000DC01CB01BC01CD010E944900DC01CB01A2
:1056400098AB8FA70FC080E991E09EA78DA78DA58D
:105650009EA50197F1F79EA78DA78FA598A9019701
:1056600098AB8FA78FA598A9009769F714C069A96F
:105670007AA98BA99CA90E944900DC01CB0198ABB7
:105680008FA78FA598A99CA78BA78BA59CA50197F1
:10569000F1F79CA78BA70E94791280E090E0AAEF17
:1056A000B3E48FA398A7A9A7BAA76FA178A589A5E6
:1056B0009AA520E030E04AE755E40E941F02DC0191
:1056C000CB018BA39CA3ADA3BEA36BA17CA18DA199
:1056D0009EA120E030E040E85FE30E94250488239B
:1056E0002CF481E090E09AA389A33FC06BA17CA138
:1056F0008DA19EA120E03FEF4FE757E40E94C50334
:1057000018164CF56FA178A589A59AA520E030E080
:1057100040E251E40E941F02DC01CB01BC01CD013B
:105720000E944900DC01CB019AA389A30FC080E944
:1057300091E098A38F8F8F8D98A10197F1F798A38F
:105740008F8F89A19AA101979AA389A389A19AA170
:10575000009769F714C06BA17CA18DA19EA10E9446
:105760004900DC01CB019AA389A389A19AA19E8F4C
:105770008D8F8D8D9E8D0197F1F79E8F8D8F0E945D
:10578000041580E090E0AFE2B4E4898F9A8FAB8F8C
:10579000BC8F698D7A8D8B8D9C8D20E030E04AE73F
:1057A00055E40E941F02DC01CB018D8B9E8BAF8BD9
:1057B000B88F6D897E898F89988D20E030E040E830
:1057C0005FE30E94250488232CF481E090E09C8B09
:1057D0008B8B3FC06D897E898F89988D20E03FEF4C
:1057E0004FE757E40E94C50318164CF5698D7A8D72
:1057F0008B8D9C8D20E030E040E251E40E941F023E
:10580000DC01CB01BC01CD010E944900DC01CB01D0
:105810009C8B8B8B0FC080E991E09A8B898B898957
:105820009A890197F1F79A8B898B8B899C890197CB
:105830009C8B8B8B8B899C89009769F714C06D8931
:105840007E898F89988D0E944900DC01CB019C8B59
:105850008B8B8B899C89988B8F878F8598890197F3
:10586000F1F7988B8F8780E090E0AFE2B4E48B870C
:105870009C87AD87BE876B857C858D859E8520E066
:1058800030E04AE755E40E941F02DC01CB018F8320
:105890009887A987BA876F81788589859A8520E05E
:1058A00030E040E85FE30E94250488232CF481E087
:1058B00090E09E838D833FC06F81788589859A852E
:1058C00020E03FEF4FE757E40E94C50318164CF560
:1058D0006B857C858D859E8520E030E040E251E43B
:1058E0000E941F02DC01CB01BC01CD010E944900D6
:1058F000DC01CB019E838D830FC080E991E09C8306
:105900008B838B819C810197F1F79C838B838D81A5
:105910009E8101979E838D838D819E81009769F77B
:105920001DC06F81788589859A850E944900DC01B8
:10593000CB019E838D838D819E819A83898389810A
:105940009A810197F1F79A83898308C08091D601E3
:105950009091D7018932910508F006CAFE01E755FA
:10596000FF4F8081853038F421EA30E081E060E04B
:10597000A9010E94B71F0E947912C755DF4F0FB6C9
:10598000F894DEBF0FBECDBFCF91DF911F910F9175
:105990000895DF93CF93CDB7DEB70E94C90F9093E0
:1059A000D7018093D6012AEA30E080E060E0A901C7
:1059B0000E94B71F8091D6019091D7010E94D01FFD
:1059C00020EB30E080E068E0A9010E94B71F8091E1
:1059D000D6019091D7018A30910538F423EB30E05D
:1059E00080E066E0A9010E94B71F8091D6019091E6
:1059F000D7018436910538F423EB30E080E067E08E
:105A0000A9010E94B71F8091D6019091D7018436D9
:105A1000910538F025EB30E080E065E0A9010E94B7
:105A2000B71FCF91DF91089597FB092E07260AD063
:105A300077FD04D02ED006D000201AF47095619521
:105A40007F4F0895F6F7909581959F4F0895A1E2B5
:105A50001A2EAA1BBB1BFD010DC0AA1FBB1FEE1FE8
:105A6000FF1FA217B307E407F50720F0A21BB30B33
:105A7000E40BF50B661F771F881F991F1A9469F7AF
:105A800060957095809590959B01AC01BD01CF010B
:105A90000895AA1BBB1B51E107C0AA1FBB1FA61775
:105AA000B70710F0A61BB70B881F991F5A95A9F7C7
:105AB00080959095BC01CD0108952F923F924F9211
:105AC0005F926F927F928F929F92AF92BF92CF928E
:105AD000DF92EF92FF920F931F93CF93DF93CDB797
