:100000000C942A000C943F000C943F000C943F0089
:100010000C943F000C943F000C943F000C943F0064
:100020000C943F000C943F000C943F000C943F0054
:100030000C943F000C943F000C943F000C943F0044
:100040000C943F000C943F000C943F000C943F0034
:100050000C943F0011241FBECFE5D8E0DEBFCDBF1A
:1000600010E0A0E6B0E0E4E5FDE002C005900D92EE
:10007000A836B107D9F70E94E0050C94A8060C94A5
:100080000000DF93CF9300D000D00F92CDB7DEB742
:1000900089836A834B838A81883008F0D5C089813F
:1000A000843008F0D1C08981282F30E03D832C8333
:1000B0008C819D818130910509F443C02C813D8163
:1000C000223031052CF48C819D81009771F0BCC0E9
:1000D0002C813D812230310509F45FC08C819D81E6
:1000E0008330910509F485C0AFC08B818130A1F4C4
:1000F000AAE3B0E0EAE3F0E08081482F8A81282F6C
:1001000030E081E090E0022E02C0880F991F0A942F
:10011000E2F7842B8C9398C0AAE3B0E0EAE3F0E026
:100120008081482F8A81282F30E081E090E0022EE4
:1001300002C0880F991F0A94E2F7809584238C935C
:1001400083C08B818130A1F4A7E3B0E0E7E3F0E066
:100150008081482F8A81282F30E081E090E0022EB4
:1001600002C0880F991F0A94E2F7842B8C936CC00D
:10017000A7E3B0E0E7E3F0E08081482F8A81282FF1
:1001800030E081E090E0022E02C0880F991F0A94AF
:10019000E2F7809584238C9357C08B818130A1F442
:1001A000A4E3B0E0E4E3F0E08081482F8A81282FC7
:1001B00030E081E090E0022E02C0880F991F0A947F
:1001C000E2F7842B8C9340C0A4E3B0E0E4E3F0E0DA
:1001D0008081482F8A81282F30E081E090E0022E34
:1001E00002C0880F991F0A94E2F7809584238C93AC
:1001F0002BC08B818130A1F4A1E3B0E0E1E3F0E01A
:100200008081482F8A81282F30E081E090E0022E03
:1002100002C0880F991F0A94E2F7842B8C9314C0B4
:10022000A1E3B0E0E1E3F0E08081482F8A81282F4C
:1002300030E081E090E0022E02C0880F991F0A94FE
:10024000E2F7809584238C930F900F900F900F907E
:100250000F90CF91DF910895DF93CF9300D000D01E
:100260000F92CDB7DEB789836A834B838A8188304A
:1002700008F0D5C08981843008F0D1C08981282F49
:1002800030E03D832C838C819D818130910509F480
:1002900043C02C813D81223031052CF48C819D811D
:1002A000009771F0BCC02C813D812230310509F4EA
:1002B0005FC08C819D818330910509F485C0AFC0FA
:1002C0008B818130A1F4ABE3B0E0EBE3F0E080811F
:1002D000482F8A81282F30E081E090E0022E02C072
:1002E000880F991F0A94E2F7842B8C9398C0ABE394
:1002F000B0E0EBE3F0E08081482F8A81282F30E0E6
:1003000081E090E0022E02C0880F991F0A94E2F764
:10031000809584238C9383C08B818130A1F4A8E3E2
:10032000B0E0E8E3F0E08081482F8A81282F30E0B8
:1003300081E090E0022E02C0880F991F0A94E2F734
:10034000842B8C936CC0A8E3B0E0E8E3F0E08081FC
:10035000482F8A81282F30E081E090E0022E02C0F1
:10036000880F991F0A94E2F7809584238C9357C0D5
:100370008B818130A1F4A5E3B0E0E5E3F0E080817A
:10038000482F8A81282F30E081E090E0022E02C0C1
:10039000880F991F0A94E2F7842B8C9340C0A5E341
:1003A000B0E0E5E3F0E08081482F8A81282F30E03B
:1003B00081E090E0022E02C0880F991F0A94E2F7B4
:1003C000809584238C932BC08B818130A1F4A2E390
:1003D000B0E0E2E3F0E08081482F8A81282F30E00E
:1003E00081E090E0022E02C0880F991F0A94E2F784
:1003F000842B8C9314C0A2E3B0E0E2E3F0E08081B0
:10040000482F8A81282F30E081E090E0022E02C040
:10041000880F991F0A94E2F7809584238C930F909C
:100420000F900F900F900F90CF91DF910895DF9371
:10043000CF9300D000D00F92CDB7DEB78A836B8305
:1004400019828B81883008F084C08A81843008F05A
:1004500080C08A81282F30E03D832C834C815D81D0
:100460004130510579F18C819D818230910534F4C0
:100470002C813D812115310569F06BC04C815D8176
:1004800042305105B9F18C819D818330910509F489
:1004900049C05FC0E9E3F0E08081282F30E08B8124
:1004A000882F90E0A90102C0559547958A95E2F7FB
:1004B000CA0181709070882319F081E0898349C056
:1004C000198247C0E6E3F0E08081282F30E08B817D
:1004D000882F90E0A90102C0559547958A95E2F7CB
:1004E000CA0181709070882319F081E0898331C03E
:1004F00019822FC0E3E3F0E08081282F30E08B8168
:10050000882F90E0A90102C0559547958A95E2F79A
:10051000CA0181709070882319F081E0898319C025
:10052000198217C0E0E3F0E08081282F30E08B8152
:10053000882F90E0A90102C0559547958A95E2F76A
:10054000CA0181709070882319F081E0898301C00D
:10055000198289810F900F900F900F900F90CF917B
:10056000DF910895DF93CF9300D000D0CDB7DEB7F1
:1005700089836A838981843090F58981282F30E0CE
:100580003C832B838B819C8181309105D1F02B8121
:100590003C81223031052CF48B819C81009761F0E5
:1005A0001EC02B813C812230310581F08B819C81E2
:1005B0008330910581F013C0EAE3F0E08A81808303
:1005C0000EC0E7E3F0E08A81808309C0E4E3F0E055
:1005D0008A81808304C0E1E3F0E08A8180830F9008
:1005E0000F900F900F90CF91DF910895DF93CF93ED
:1005F00000D000D0CDB7DEB789836A83898184308B
:1006000090F58981282F30E03C832B838B819C815E
:1006100081309105D1F02B813C81223031052CF4C1
:100620008B819C81009761F01EC02B813C81223020
:10063000310581F08B819C818330910581F013C05D
:10064000EBE3F0E08A8180830EC0E8E3F0E08A818A
:10065000808309C0E5E3F0E08A81808304C0E2E39F
:10066000F0E08A8180830F900F900F900F90CF91D0
:10067000DF910895DF93CF9300D000D0CDB7DEB7E0
:100680008A8319828A81843090F58A81282F30E00C
:100690003C832B838B819C8181309105D1F02B8110
:1006A0003C81223031052CF48B819C81009761F0D4
:1006B0001EC02B813C812230310581F08B819C81D1
:1006C0008330910581F013C0E9E3F0E080818983F4
:1006D0000EC0E6E3F0E08081898309C0E3E3F0E047
:1006E0008081898304C0E0E3F0E08081898389818F
:1006F0000F900F900F900F90CF91DF9108950F936F
:100700001F93DF93CF9300D0CDB7DEB79A83898351
:10071000E2E5F0E010820CE510E0E981FA818281E7
:10072000482F50E0CA019C01220F331FC901969542
:10073000982F882797958795821B930B840F951F79
:1007400024E630E0B9010E945F06CB01F801808306
:10075000A7E3B0E0E7E3F0E0808188608C93A3E555
:10076000B0E0E981FA818081882F90E082959295AE
:10077000907F9827807F9827982F9864E981FA8145
:100780008181892B8C930F900F90CF91DF911F91D6
:100790000F910895DF93CF9300D000D0CDB7DEB78F
:1007A0009C838B831A821982EBE2F0E082E08083E3
:1007B000EAE2F0E088E18083A0E4B0E0EB81FC8134
:1007C0008681882F90E0880F991F282F2068EB8161
:1007D000FC818481882F90E082959295907F982764
:1007E000807F9827282BEB81FC818581882F90E0E2
:1007F000880F991F880F991F880F991F822B8C9340
:10080000EB81FC8180819181A281B381880F991F46
:10081000AA1FBB1F880F991FAA1FBB1F880F991FF4
:10082000AA1FBB1F9C01AD0180E094E2A4EFB0E0E1
:10083000BC01CD010E947206DA01C90101979A83B9
:100840008983E0E4F0E089819A81892F9927808368
:10085000E9E2F0E0898180830F900F900F900F9074
:10086000CF91DF910895DF93CF930F92CDB7DEB78D
:100870008983EBE2F0E08081882F90E080729070B5
:100880000097B9F3ECE2F0E0898180830F90CF917B
:10089000DF910895DF93CF93CDB7DEB7EBE2F0E0C1
:1008A00080818823DCF7ECE2F0E08081CF91DF915A
:1008B0000895DF93CF9300D00F92CDB7DEB79B831F
:1008C0008A8319820EC08981282F30E08A819B811A
:1008D000FC01E20FF31F80810E94330489818F5F46
:1008E00089838981282F30E08A819B81FC01E20F76
:1008F000F31F8081882339F70F900F900F90CF91CD
:10090000DF9108950F931F93DF93CF9300D00F9241
:10091000CDB7DEB79B838A8319828981282F30E087
:100920008A819B818C01020F131F0E944A04F801E7
:1009300080830FC089818F5F89838981282F30E070
:100940008A819B818C01020F131F0E944A04F801C7
:1009500080838981282F30E08A819B81FC01E20F0E
:10096000F31F8081833231F78981282F30E08A811B
:100970009B81FC01E20FF31F10820F900F900F90EC
:10098000CF91DF911F910F910895DF93CF9300D006
:1009900000D0CDB7DEB79B838A836C8319820EC0EB
:1009A0008981282F30E08A819B81FC01E20FF31FAF
:1009B00080810E94330489818F5F898399818C8132
:1009C000981770F383E20E9433040F900F900F90FA
:1009D0000F90CF91DF9108950F931F93DF93CF93E3
:1009E00000D00F92CDB7DEB79B838A8319828981AD
:1009F000282F30E08A819B818C01020F131F0E94F7
:100A00004A04F80180830FC089818F5F89838981BF
:100A1000282F30E08A819B818C01020F131F0E94D6
:100A20004A04F80180838981282F30E08A819B81E4
:100A3000FC01E20FF31F8081833231F70F900F909A
:100A40000F90CF91DF911F910F910895DF93CF9376
:100A5000CDB7DEB783E066E041E00E94410083E06D
:100A600067E041E00E94410081E063E041E00E94D4
:100A7000410083E066E040E00E942C0183E067E0F3
:100A800040E00E942C01CF91DF910895DF93CF9336
:100A9000CDB7DEB727970FB6F894DEBF0FBECDBF38
:100AA0008C836D8382E0898381E08A838D818B834F
:100AB000CE0101960E947F038C81282F30E03F8376
:100AC0002E838E819F8181309105A1F02E813F81FF
:100AD00022303105D1F08E819F81009701F583E0AE
:100AE00066E040E00E942C0183E067E040E00E9465
:100AF0002C0115C083E066E041E00E942C0183E0F8
:100B000067E040E00E942C010AC083E066E040E01C
:100B10000E942C0183E067E041E00E942C012796AF
:100B20000FB6F894DEBF0FBECDBFCF91DF91089511
:100B3000DF93CF9300D000D00F92CDB7DEB789837B
:100B40008981282F30E03C832B838B819C818333E8
:100B5000910509F12B813C81243331055CF48B81B3
:100B60009C818133910589F02B813C8122333105B1
:100B700079F01AC08B819C818433910579F02B81A7
:100B80003C812533310569F00FC034E13A830DC053
:100B900088E28A830AC09CE39A8307C020E52A83FF
:100BA00004C034E63A8301C002C08A818D838D81FE
:100BB0000F900F900F900F900F90CF91DF910895AD
:100BC000DF93CF93CDB7DEB72F970FB6F894DEBF84
:100BD0000FBECDBF0E9426059E012E5F3F4F3C8772
:100BE0002B8780E690E09E878D8797E09F87ED8535
:100BF000FE8500802D853E852F5F3F4F3E872D87E8
:100C0000EB85FC8500822B853C852F5F3F4F3C8721
:100C10002B873F8531503F878F85882341F7CE0151
:100C200002960E94CA030E944A0489838981E82FA0
:100C3000F0E0FA87E98729853A852634310559F0AD
:100C400089859A858335910591F1E985FA85E234A4
:100C5000F105B9F0EBCF0E944A0489830BC089816A
:100C60000E949805982F81E0692F0E9446050E94F6
:100C70004A04898389818133C8F28981863378F374
:100C8000D5CF0E944A0489830BC089810E949805B0
:100C9000982F82E0692F0E9446050E944A048983AA
:100CA0008981813318F28981863378F3BFCF80E060
:100CB00060E00E9446050E944A048983B7CF97FBF3
:100CC000092E07260AD077FD04D02ED006D00020AA
:100CD0001AF4709561957F4F0895F6F79095819578
:100CE0009F4F0895A1E21A2EAA1BBB1BFD010DC048
:100CF000AA1FBB1FEE1FFF1FA217B307E407F507CC
:100D000020F0A21BB30BE40BF50B661F771F881FA7
:100D1000991F1A9469F760957095809590959B013D
:100D2000AC01BD01CF010895AA1BBB1B51E107C057
:100D3000AA1FBB1FA617B70710F0A61BB70B881F6B
:100D4000991F5A95A9F780959095BC01CD010895FA
:040D5000F894FFCF45
:080D54008025000000000300EF
:00000001FF
